{
	"contracts/payment.sol": {
		"SimplePaymentChannel": {
			"abi": [
				{
					"inputs": [
						{
							"internalType": "address payable",
							"name": "recipientAddress",
							"type": "address"
						},
						{
							"internalType": "uint256",
							"name": "duration",
							"type": "uint256"
						}
					],
					"stateMutability": "payable",
					"type": "constructor"
				},
				{
					"inputs": [],
					"name": "claimTimeout",
					"outputs": [],
					"stateMutability": "nonpayable",
					"type": "function"
				},
				{
					"inputs": [
						{
							"internalType": "uint256",
							"name": "amount",
							"type": "uint256"
						},
						{
							"internalType": "bytes",
							"name": "signature",
							"type": "bytes"
						}
					],
					"name": "close",
					"outputs": [],
					"stateMutability": "nonpayable",
					"type": "function"
				},
				{
					"inputs": [],
					"name": "expiration",
					"outputs": [
						{
							"internalType": "uint256",
							"name": "",
							"type": "uint256"
						}
					],
					"stateMutability": "view",
					"type": "function"
				},
				{
					"inputs": [
						{
							"internalType": "uint256",
							"name": "newExpiration",
							"type": "uint256"
						}
					],
					"name": "extend",
					"outputs": [],
					"stateMutability": "nonpayable",
					"type": "function"
				},
				{
					"inputs": [],
					"name": "recipient",
					"outputs": [
						{
							"internalType": "address payable",
							"name": "",
							"type": "address"
						}
					],
					"stateMutability": "view",
					"type": "function"
				},
				{
					"inputs": [],
					"name": "sender",
					"outputs": [
						{
							"internalType": "address payable",
							"name": "",
							"type": "address"
						}
					],
					"stateMutability": "view",
					"type": "function"
				}
			],
			"devdoc": {
				"kind": "dev",
				"methods": {},
				"version": 1
			},
			"evm": {
				"assembly": "    /* \"contracts/payment.sol\":301:3414  contract SimplePaymentChannel is Frozeable {... */\n  mstore(0x40, 0x80)\n    /* \"contracts/payment.sol\":121:126  false */\n  0x00\n    /* \"contracts/payment.sol\":98:126  bool private _frozen = false */\n  dup1\n  exp(0x0100, 0x00)\n  dup2\n  sload\n  dup2\n  0xff\n  mul\n  not\n  and\n  swap1\n  dup4\n  iszero\n  iszero\n  mul\n  or\n  swap1\n  sstore\n  pop\n    /* \"contracts/payment.sol\":589:812  constructor (address payable recipientAddress, uint256 duration)... */\n  mload(0x40)\n  sub(codesize, bytecodeSize)\n  dup1\n  bytecodeSize\n  dup4\n  codecopy\n  dup2\n  dup2\n  add\n  0x40\n  mstore\n  dup2\n  add\n  swap1\n  tag_1\n  swap2\n  swap1\n  tag_2\n  jump\t// in\ntag_1:\n    /* \"contracts/payment.sol\":704:714  msg.sender */\n  caller\n    /* \"contracts/payment.sol\":687:693  sender */\n  0x00\n  0x01\n    /* \"contracts/payment.sol\":687:715  sender = payable(msg.sender) */\n  0x0100\n  exp\n  dup2\n  sload\n  dup2\n  0xffffffffffffffffffffffffffffffffffffffff\n  mul\n  not\n  and\n  swap1\n  dup4\n  0xffffffffffffffffffffffffffffffffffffffff\n  and\n  mul\n  or\n  swap1\n  sstore\n  pop\n    /* \"contracts/payment.sol\":738:754  recipientAddress */\n  dup2\n    /* \"contracts/payment.sol\":726:735  recipient */\n  0x01\n  0x00\n    /* \"contracts/payment.sol\":726:754  recipient = recipientAddress */\n  0x0100\n  exp\n  dup2\n  sload\n  dup2\n  0xffffffffffffffffffffffffffffffffffffffff\n  mul\n  not\n  and\n  swap1\n  dup4\n  0xffffffffffffffffffffffffffffffffffffffff\n  and\n  mul\n  or\n  swap1\n  sstore\n  pop\n    /* \"contracts/payment.sol\":796:804  duration */\n  dup1\n    /* \"contracts/payment.sol\":778:793  block.timestamp */\n  timestamp\n    /* \"contracts/payment.sol\":778:804  block.timestamp + duration */\n  tag_5\n  swap2\n  swap1\n  tag_6\n  jump\t// in\ntag_5:\n    /* \"contracts/payment.sol\":765:775  expiration */\n  0x02\n    /* \"contracts/payment.sol\":765:804  expiration = block.timestamp + duration */\n  dup2\n  swap1\n  sstore\n  pop\n    /* \"contracts/payment.sol\":589:812  constructor (address payable recipientAddress, uint256 duration)... */\n  pop\n  pop\n    /* \"contracts/payment.sol\":301:3414  contract SimplePaymentChannel is Frozeable {... */\n  jump(tag_7)\n    /* \"#utility.yul\":88:205   */\ntag_9:\n    /* \"#utility.yul\":197:198   */\n  0x00\n    /* \"#utility.yul\":194:195   */\n  dup1\n    /* \"#utility.yul\":187:199   */\n  revert\n    /* \"#utility.yul\":334:460   */\ntag_11:\n    /* \"#utility.yul\":371:378   */\n  0x00\n    /* \"#utility.yul\":411:453   */\n  0xffffffffffffffffffffffffffffffffffffffff\n    /* \"#utility.yul\":404:409   */\n  dup3\n    /* \"#utility.yul\":400:454   */\n  and\n    /* \"#utility.yul\":389:454   */\n  swap1\n  pop\n    /* \"#utility.yul\":334:460   */\n  swap2\n  swap1\n  pop\n  jump\t// out\n    /* \"#utility.yul\":466:570   */\ntag_12:\n    /* \"#utility.yul\":511:518   */\n  0x00\n    /* \"#utility.yul\":540:564   */\n  tag_25\n    /* \"#utility.yul\":558:563   */\n  dup3\n    /* \"#utility.yul\":540:564   */\n  tag_11\n  jump\t// in\ntag_25:\n    /* \"#utility.yul\":529:564   */\n  swap1\n  pop\n    /* \"#utility.yul\":466:570   */\n  swap2\n  swap1\n  pop\n  jump\t// out\n    /* \"#utility.yul\":576:714   */\ntag_13:\n    /* \"#utility.yul\":657:689   */\n  tag_27\n    /* \"#utility.yul\":683:688   */\n  dup2\n    /* \"#utility.yul\":657:689   */\n  tag_12\n  jump\t// in\ntag_27:\n    /* \"#utility.yul\":650:655   */\n  dup2\n    /* \"#utility.yul\":647:690   */\n  eq\n    /* \"#utility.yul\":637:708   */\n  tag_28\n  jumpi\n    /* \"#utility.yul\":704:705   */\n  0x00\n    /* \"#utility.yul\":701:702   */\n  dup1\n    /* \"#utility.yul\":694:706   */\n  revert\n    /* \"#utility.yul\":637:708   */\ntag_28:\n    /* \"#utility.yul\":576:714   */\n  pop\n  jump\t// out\n    /* \"#utility.yul\":720:879   */\ntag_14:\n    /* \"#utility.yul\":785:790   */\n  0x00\n    /* \"#utility.yul\":816:822   */\n  dup2\n    /* \"#utility.yul\":810:823   */\n  mload\n    /* \"#utility.yul\":801:823   */\n  swap1\n  pop\n    /* \"#utility.yul\":832:873   */\n  tag_30\n    /* \"#utility.yul\":867:872   */\n  dup2\n    /* \"#utility.yul\":832:873   */\n  tag_13\n  jump\t// in\ntag_30:\n    /* \"#utility.yul\":720:879   */\n  swap3\n  swap2\n  pop\n  pop\n  jump\t// out\n    /* \"#utility.yul\":885:962   */\ntag_15:\n    /* \"#utility.yul\":922:929   */\n  0x00\n    /* \"#utility.yul\":951:956   */\n  dup2\n    /* \"#utility.yul\":940:956   */\n  swap1\n  pop\n    /* \"#utility.yul\":885:962   */\n  swap2\n  swap1\n  pop\n  jump\t// out\n    /* \"#utility.yul\":968:1090   */\ntag_16:\n    /* \"#utility.yul\":1041:1065   */\n  tag_33\n    /* \"#utility.yul\":1059:1064   */\n  dup2\n    /* \"#utility.yul\":1041:1065   */\n  tag_15\n  jump\t// in\ntag_33:\n    /* \"#utility.yul\":1034:1039   */\n  dup2\n    /* \"#utility.yul\":1031:1066   */\n  eq\n    /* \"#utility.yul\":1021:1084   */\n  tag_34\n  jumpi\n    /* \"#utility.yul\":1080:1081   */\n  0x00\n    /* \"#utility.yul\":1077:1078   */\n  dup1\n    /* \"#utility.yul\":1070:1082   */\n  revert\n    /* \"#utility.yul\":1021:1084   */\ntag_34:\n    /* \"#utility.yul\":968:1090   */\n  pop\n  jump\t// out\n    /* \"#utility.yul\":1096:1239   */\ntag_17:\n    /* \"#utility.yul\":1153:1158   */\n  0x00\n    /* \"#utility.yul\":1184:1190   */\n  dup2\n    /* \"#utility.yul\":1178:1191   */\n  mload\n    /* \"#utility.yul\":1169:1191   */\n  swap1\n  pop\n    /* \"#utility.yul\":1200:1233   */\n  tag_36\n    /* \"#utility.yul\":1227:1232   */\n  dup2\n    /* \"#utility.yul\":1200:1233   */\n  tag_16\n  jump\t// in\ntag_36:\n    /* \"#utility.yul\":1096:1239   */\n  swap3\n  swap2\n  pop\n  pop\n  jump\t// out\n    /* \"#utility.yul\":1245:1768   */\ntag_2:\n    /* \"#utility.yul\":1332:1338   */\n  0x00\n    /* \"#utility.yul\":1340:1346   */\n  dup1\n    /* \"#utility.yul\":1389:1391   */\n  0x40\n    /* \"#utility.yul\":1377:1386   */\n  dup4\n    /* \"#utility.yul\":1368:1375   */\n  dup6\n    /* \"#utility.yul\":1364:1387   */\n  sub\n    /* \"#utility.yul\":1360:1392   */\n  slt\n    /* \"#utility.yul\":1357:1476   */\n  iszero\n  tag_38\n  jumpi\n    /* \"#utility.yul\":1395:1474   */\n  tag_39\n  tag_9\n  jump\t// in\ntag_39:\n    /* \"#utility.yul\":1357:1476   */\ntag_38:\n    /* \"#utility.yul\":1515:1516   */\n  0x00\n    /* \"#utility.yul\":1540:1612   */\n  tag_40\n    /* \"#utility.yul\":1604:1611   */\n  dup6\n    /* \"#utility.yul\":1595:1601   */\n  dup3\n    /* \"#utility.yul\":1584:1593   */\n  dup7\n    /* \"#utility.yul\":1580:1602   */\n  add\n    /* \"#utility.yul\":1540:1612   */\n  tag_14\n  jump\t// in\ntag_40:\n    /* \"#utility.yul\":1530:1612   */\n  swap3\n  pop\n    /* \"#utility.yul\":1486:1622   */\n  pop\n    /* \"#utility.yul\":1661:1663   */\n  0x20\n    /* \"#utility.yul\":1687:1751   */\n  tag_41\n    /* \"#utility.yul\":1743:1750   */\n  dup6\n    /* \"#utility.yul\":1734:1740   */\n  dup3\n    /* \"#utility.yul\":1723:1732   */\n  dup7\n    /* \"#utility.yul\":1719:1741   */\n  add\n    /* \"#utility.yul\":1687:1751   */\n  tag_17\n  jump\t// in\ntag_41:\n    /* \"#utility.yul\":1677:1751   */\n  swap2\n  pop\n    /* \"#utility.yul\":1632:1761   */\n  pop\n    /* \"#utility.yul\":1245:1768   */\n  swap3\n  pop\n  swap3\n  swap1\n  pop\n  jump\t// out\n    /* \"#utility.yul\":1774:1954   */\ntag_18:\n    /* \"#utility.yul\":1822:1899   */\n  0x4e487b7100000000000000000000000000000000000000000000000000000000\n    /* \"#utility.yul\":1819:1820   */\n  0x00\n    /* \"#utility.yul\":1812:1900   */\n  mstore\n    /* \"#utility.yul\":1919:1923   */\n  0x11\n    /* \"#utility.yul\":1916:1917   */\n  0x04\n    /* \"#utility.yul\":1909:1924   */\n  mstore\n    /* \"#utility.yul\":1943:1947   */\n  0x24\n    /* \"#utility.yul\":1940:1941   */\n  0x00\n    /* \"#utility.yul\":1933:1948   */\n  revert\n    /* \"#utility.yul\":1960:2151   */\ntag_6:\n    /* \"#utility.yul\":2000:2003   */\n  0x00\n    /* \"#utility.yul\":2019:2039   */\n  tag_44\n    /* \"#utility.yul\":2037:2038   */\n  dup3\n    /* \"#utility.yul\":2019:2039   */\n  tag_15\n  jump\t// in\ntag_44:\n    /* \"#utility.yul\":2014:2039   */\n  swap2\n  pop\n    /* \"#utility.yul\":2053:2073   */\n  tag_45\n    /* \"#utility.yul\":2071:2072   */\n  dup4\n    /* \"#utility.yul\":2053:2073   */\n  tag_15\n  jump\t// in\ntag_45:\n    /* \"#utility.yul\":2048:2073   */\n  swap3\n  pop\n    /* \"#utility.yul\":2096:2097   */\n  dup3\n    /* \"#utility.yul\":2093:2094   */\n  dup3\n    /* \"#utility.yul\":2089:2098   */\n  add\n    /* \"#utility.yul\":2082:2098   */\n  swap1\n  pop\n    /* \"#utility.yul\":2117:2120   */\n  dup1\n    /* \"#utility.yul\":2114:2115   */\n  dup3\n    /* \"#utility.yul\":2111:2121   */\n  gt\n    /* \"#utility.yul\":2108:2144   */\n  iszero\n  tag_46\n  jumpi\n    /* \"#utility.yul\":2124:2142   */\n  tag_47\n  tag_18\n  jump\t// in\ntag_47:\n    /* \"#utility.yul\":2108:2144   */\ntag_46:\n    /* \"#utility.yul\":1960:2151   */\n  swap3\n  swap2\n  pop\n  pop\n  jump\t// out\n    /* \"contracts/payment.sol\":301:3414  contract SimplePaymentChannel is Frozeable {... */\ntag_7:\n  dataSize(sub_0)\n  dup1\n  dataOffset(sub_0)\n  0x00\n  codecopy\n  0x00\n  return\nstop\n\nsub_0: assembly {\n        /* \"contracts/payment.sol\":301:3414  contract SimplePaymentChannel is Frozeable {... */\n      mstore(0x40, 0x80)\n      callvalue\n      dup1\n      iszero\n      tag_1\n      jumpi\n      0x00\n      dup1\n      revert\n    tag_1:\n      pop\n      jumpi(tag_2, lt(calldatasize, 0x04))\n      shr(0xe0, calldataload(0x00))\n      dup1\n      0x0e1da6c3\n      eq\n      tag_3\n      jumpi\n      dup1\n      0x415ffba7\n      eq\n      tag_4\n      jumpi\n      dup1\n      0x4665096d\n      eq\n      tag_5\n      jumpi\n      dup1\n      0x66d003ac\n      eq\n      tag_6\n      jumpi\n      dup1\n      0x67e404ce\n      eq\n      tag_7\n      jumpi\n      dup1\n      0x9714378c\n      eq\n      tag_8\n      jumpi\n    tag_2:\n      0x00\n      dup1\n      revert\n        /* \"contracts/payment.sol\":1759:1950  function claimTimeout()... */\n    tag_3:\n      tag_9\n      tag_10\n      jump\t// in\n    tag_9:\n      stop\n        /* \"contracts/payment.sol\":1027:1337  function close(uint256 amount, bytes memory signature)... */\n    tag_4:\n      tag_11\n      0x04\n      dup1\n      calldatasize\n      sub\n      dup2\n      add\n      swap1\n      tag_12\n      swap2\n      swap1\n      tag_13\n      jump\t// in\n    tag_12:\n      tag_14\n      jump\t// in\n    tag_11:\n      stop\n        /* \"contracts/payment.sol\":501:526  uint256 public expiration */\n    tag_5:\n      tag_15\n      tag_16\n      jump\t// in\n    tag_15:\n      mload(0x40)\n      tag_17\n      swap2\n      swap1\n      tag_18\n      jump\t// in\n    tag_17:\n      mload(0x40)\n      dup1\n      swap2\n      sub\n      swap1\n      return\n        /* \"contracts/payment.sol\":423:455  address payable public recipient */\n    tag_6:\n      tag_19\n      tag_20\n      jump\t// in\n    tag_19:\n      mload(0x40)\n      tag_21\n      swap2\n      swap1\n      tag_22\n      jump\t// in\n    tag_21:\n      mload(0x40)\n      dup1\n      swap2\n      sub\n      swap1\n      return\n        /* \"contracts/payment.sol\":351:380  address payable public sender */\n    tag_7:\n      tag_23\n      tag_24\n      jump\t// in\n    tag_23:\n      mload(0x40)\n      tag_25\n      swap2\n      swap1\n      tag_22\n      jump\t// in\n    tag_25:\n      mload(0x40)\n      dup1\n      swap2\n      sub\n      swap1\n      return\n        /* \"contracts/payment.sol\":1403:1617  function extend(uint256 newExpiration)... */\n    tag_8:\n      tag_26\n      0x04\n      dup1\n      calldatasize\n      sub\n      dup2\n      add\n      swap1\n      tag_27\n      swap2\n      swap1\n      tag_28\n      jump\t// in\n    tag_27:\n      tag_29\n      jump\t// in\n    tag_26:\n      stop\n        /* \"contracts/payment.sol\":1759:1950  function claimTimeout()... */\n    tag_10:\n        /* \"contracts/payment.sol\":176:183  _frozen */\n      0x00\n      dup1\n      sload\n      swap1\n      0x0100\n      exp\n      swap1\n      div\n      0xff\n      and\n        /* \"contracts/payment.sol\":175:183  !_frozen */\n      iszero\n        /* \"contracts/payment.sol\":167:206  require(!_frozen, \"Inactive Contract.\") */\n      tag_31\n      jumpi\n      mload(0x40)\n      0x08c379a000000000000000000000000000000000000000000000000000000000\n      dup2\n      mstore\n      0x04\n      add\n      tag_32\n      swap1\n      tag_33\n      jump\t// in\n    tag_32:\n      mload(0x40)\n      dup1\n      swap2\n      sub\n      swap1\n      revert\n    tag_31:\n        /* \"contracts/payment.sol\":1863:1873  expiration */\n      sload(0x02)\n        /* \"contracts/payment.sol\":1844:1859  block.timestamp */\n      timestamp\n        /* \"contracts/payment.sol\":1844:1873  block.timestamp >= expiration */\n      lt\n      iszero\n        /* \"contracts/payment.sol\":1836:1874  require(block.timestamp >= expiration) */\n      tag_35\n      jumpi\n      0x00\n      dup1\n      revert\n    tag_35:\n        /* \"contracts/payment.sol\":1885:1893  freeze() */\n      tag_36\n        /* \"contracts/payment.sol\":1885:1891  freeze */\n      tag_37\n        /* \"contracts/payment.sol\":1885:1893  freeze() */\n      jump\t// in\n    tag_36:\n        /* \"contracts/payment.sol\":1904:1910  sender */\n      0x00\n      0x01\n      swap1\n      sload\n      swap1\n      0x0100\n      exp\n      swap1\n      div\n      0xffffffffffffffffffffffffffffffffffffffff\n      and\n        /* \"contracts/payment.sol\":1904:1919  sender.transfer */\n      0xffffffffffffffffffffffffffffffffffffffff\n      and\n        /* \"contracts/payment.sol\":1904:1942  sender.transfer(address(this).balance) */\n      0x08fc\n        /* \"contracts/payment.sol\":1920:1941  address(this).balance */\n      selfbalance\n        /* \"contracts/payment.sol\":1904:1942  sender.transfer(address(this).balance) */\n      swap1\n      dup2\n      iszero\n      mul\n      swap1\n      mload(0x40)\n      0x00\n      mload(0x40)\n      dup1\n      dup4\n      sub\n      dup2\n      dup6\n      dup9\n      dup9\n      call\n      swap4\n      pop\n      pop\n      pop\n      pop\n      iszero\n      dup1\n      iszero\n      tag_39\n      jumpi\n      returndatasize\n      0x00\n      dup1\n      returndatacopy\n      revert(0x00, returndatasize)\n    tag_39:\n      pop\n        /* \"contracts/payment.sol\":1759:1950  function claimTimeout()... */\n      jump\t// out\n        /* \"contracts/payment.sol\":1027:1337  function close(uint256 amount, bytes memory signature)... */\n    tag_14:\n        /* \"contracts/payment.sol\":176:183  _frozen */\n      0x00\n      dup1\n      sload\n      swap1\n      0x0100\n      exp\n      swap1\n      div\n      0xff\n      and\n        /* \"contracts/payment.sol\":175:183  !_frozen */\n      iszero\n        /* \"contracts/payment.sol\":167:206  require(!_frozen, \"Inactive Contract.\") */\n      tag_41\n      jumpi\n      mload(0x40)\n      0x08c379a000000000000000000000000000000000000000000000000000000000\n      dup2\n      mstore\n      0x04\n      add\n      tag_42\n      swap1\n      tag_33\n      jump\t// in\n    tag_42:\n      mload(0x40)\n      dup1\n      swap2\n      sub\n      swap1\n      revert\n    tag_41:\n        /* \"contracts/payment.sol\":1157:1166  recipient */\n      0x01\n      0x00\n      swap1\n      sload\n      swap1\n      0x0100\n      exp\n      swap1\n      div\n      0xffffffffffffffffffffffffffffffffffffffff\n      and\n        /* \"contracts/payment.sol\":1143:1166  msg.sender == recipient */\n      0xffffffffffffffffffffffffffffffffffffffff\n      and\n        /* \"contracts/payment.sol\":1143:1153  msg.sender */\n      caller\n        /* \"contracts/payment.sol\":1143:1166  msg.sender == recipient */\n      0xffffffffffffffffffffffffffffffffffffffff\n      and\n      eq\n        /* \"contracts/payment.sol\":1135:1167  require(msg.sender == recipient) */\n      tag_44\n      jumpi\n      0x00\n      dup1\n      revert\n    tag_44:\n        /* \"contracts/payment.sol\":1186:1221  isValidSignature(amount, signature) */\n      tag_45\n        /* \"contracts/payment.sol\":1203:1209  amount */\n      dup3\n        /* \"contracts/payment.sol\":1211:1220  signature */\n      dup3\n        /* \"contracts/payment.sol\":1186:1202  isValidSignature */\n      tag_46\n        /* \"contracts/payment.sol\":1186:1221  isValidSignature(amount, signature) */\n      jump\t// in\n    tag_45:\n        /* \"contracts/payment.sol\":1178:1222  require(isValidSignature(amount, signature)) */\n      tag_47\n      jumpi\n      0x00\n      dup1\n      revert\n    tag_47:\n        /* \"contracts/payment.sol\":1235:1244  recipient */\n      0x01\n      0x00\n      swap1\n      sload\n      swap1\n      0x0100\n      exp\n      swap1\n      div\n      0xffffffffffffffffffffffffffffffffffffffff\n      and\n        /* \"contracts/payment.sol\":1235:1253  recipient.transfer */\n      0xffffffffffffffffffffffffffffffffffffffff\n      and\n        /* \"contracts/payment.sol\":1235:1261  recipient.transfer(amount) */\n      0x08fc\n        /* \"contracts/payment.sol\":1254:1260  amount */\n      dup4\n        /* \"contracts/payment.sol\":1235:1261  recipient.transfer(amount) */\n      swap1\n      dup2\n      iszero\n      mul\n      swap1\n      mload(0x40)\n      0x00\n      mload(0x40)\n      dup1\n      dup4\n      sub\n      dup2\n      dup6\n      dup9\n      dup9\n      call\n      swap4\n      pop\n      pop\n      pop\n      pop\n      iszero\n      dup1\n      iszero\n      tag_49\n      jumpi\n      returndatasize\n      0x00\n      dup1\n      returndatacopy\n      revert(0x00, returndatasize)\n    tag_49:\n      pop\n        /* \"contracts/payment.sol\":1272:1280  freeze() */\n      tag_50\n        /* \"contracts/payment.sol\":1272:1278  freeze */\n      tag_37\n        /* \"contracts/payment.sol\":1272:1280  freeze() */\n      jump\t// in\n    tag_50:\n        /* \"contracts/payment.sol\":1291:1297  sender */\n      0x00\n      0x01\n      swap1\n      sload\n      swap1\n      0x0100\n      exp\n      swap1\n      div\n      0xffffffffffffffffffffffffffffffffffffffff\n      and\n        /* \"contracts/payment.sol\":1291:1306  sender.transfer */\n      0xffffffffffffffffffffffffffffffffffffffff\n      and\n        /* \"contracts/payment.sol\":1291:1329  sender.transfer(address(this).balance) */\n      0x08fc\n        /* \"contracts/payment.sol\":1307:1328  address(this).balance */\n      selfbalance\n        /* \"contracts/payment.sol\":1291:1329  sender.transfer(address(this).balance) */\n      swap1\n      dup2\n      iszero\n      mul\n      swap1\n      mload(0x40)\n      0x00\n      mload(0x40)\n      dup1\n      dup4\n      sub\n      dup2\n      dup6\n      dup9\n      dup9\n      call\n      swap4\n      pop\n      pop\n      pop\n      pop\n      iszero\n      dup1\n      iszero\n      tag_52\n      jumpi\n      returndatasize\n      0x00\n      dup1\n      returndatacopy\n      revert(0x00, returndatasize)\n    tag_52:\n      pop\n        /* \"contracts/payment.sol\":1027:1337  function close(uint256 amount, bytes memory signature)... */\n      pop\n      pop\n      jump\t// out\n        /* \"contracts/payment.sol\":501:526  uint256 public expiration */\n    tag_16:\n      sload(0x02)\n      dup2\n      jump\t// out\n        /* \"contracts/payment.sol\":423:455  address payable public recipient */\n    tag_20:\n      0x01\n      0x00\n      swap1\n      sload\n      swap1\n      0x0100\n      exp\n      swap1\n      div\n      0xffffffffffffffffffffffffffffffffffffffff\n      and\n      dup2\n      jump\t// out\n        /* \"contracts/payment.sol\":351:380  address payable public sender */\n    tag_24:\n      0x00\n      0x01\n      swap1\n      sload\n      swap1\n      0x0100\n      exp\n      swap1\n      div\n      0xffffffffffffffffffffffffffffffffffffffff\n      and\n      dup2\n      jump\t// out\n        /* \"contracts/payment.sol\":1403:1617  function extend(uint256 newExpiration)... */\n    tag_29:\n        /* \"contracts/payment.sol\":176:183  _frozen */\n      0x00\n      dup1\n      sload\n      swap1\n      0x0100\n      exp\n      swap1\n      div\n      0xff\n      and\n        /* \"contracts/payment.sol\":175:183  !_frozen */\n      iszero\n        /* \"contracts/payment.sol\":167:206  require(!_frozen, \"Inactive Contract.\") */\n      tag_54\n      jumpi\n      mload(0x40)\n      0x08c379a000000000000000000000000000000000000000000000000000000000\n      dup2\n      mstore\n      0x04\n      add\n      tag_55\n      swap1\n      tag_33\n      jump\t// in\n    tag_55:\n      mload(0x40)\n      dup1\n      swap2\n      sub\n      swap1\n      revert\n    tag_54:\n        /* \"contracts/payment.sol\":1517:1523  sender */\n      0x00\n      0x01\n      swap1\n      sload\n      swap1\n      0x0100\n      exp\n      swap1\n      div\n      0xffffffffffffffffffffffffffffffffffffffff\n      and\n        /* \"contracts/payment.sol\":1503:1523  msg.sender == sender */\n      0xffffffffffffffffffffffffffffffffffffffff\n      and\n        /* \"contracts/payment.sol\":1503:1513  msg.sender */\n      caller\n        /* \"contracts/payment.sol\":1503:1523  msg.sender == sender */\n      0xffffffffffffffffffffffffffffffffffffffff\n      and\n      eq\n        /* \"contracts/payment.sol\":1495:1524  require(msg.sender == sender) */\n      tag_57\n      jumpi\n      0x00\n      dup1\n      revert\n    tag_57:\n        /* \"contracts/payment.sol\":1559:1569  expiration */\n      sload(0x02)\n        /* \"contracts/payment.sol\":1543:1556  newExpiration */\n      dup2\n        /* \"contracts/payment.sol\":1543:1569  newExpiration > expiration */\n      gt\n        /* \"contracts/payment.sol\":1535:1570  require(newExpiration > expiration) */\n      tag_58\n      jumpi\n      0x00\n      dup1\n      revert\n    tag_58:\n        /* \"contracts/payment.sol\":1596:1609  newExpiration */\n      dup1\n        /* \"contracts/payment.sol\":1583:1593  expiration */\n      0x02\n        /* \"contracts/payment.sol\":1583:1609  expiration = newExpiration */\n      dup2\n      swap1\n      sstore\n      pop\n        /* \"contracts/payment.sol\":1403:1617  function extend(uint256 newExpiration)... */\n      pop\n      jump\t// out\n        /* \"contracts/payment.sol\":234:294  function freeze() internal {... */\n    tag_37:\n        /* \"contracts/payment.sol\":282:286  true */\n      0x01\n        /* \"contracts/payment.sol\":272:279  _frozen */\n      0x00\n      dup1\n        /* \"contracts/payment.sol\":272:286  _frozen = true */\n      0x0100\n      exp\n      dup2\n      sload\n      dup2\n      0xff\n      mul\n      not\n      and\n      swap1\n      dup4\n      iszero\n      iszero\n      mul\n      or\n      swap1\n      sstore\n      pop\n        /* \"contracts/payment.sol\":234:294  function freeze() internal {... */\n      jump\t// out\n        /* \"contracts/payment.sol\":1958:2298  function isValidSignature(uint256 amount, bytes memory signature)... */\n    tag_46:\n        /* \"contracts/payment.sol\":2074:2078  bool */\n      0x00\n        /* \"contracts/payment.sol\":2096:2111  bytes32 message */\n      dup1\n        /* \"contracts/payment.sol\":2114:2165  prefixed(keccak256(abi.encodePacked(this, amount))) */\n      tag_61\n        /* \"contracts/payment.sol\":2150:2154  this */\n      address\n        /* \"contracts/payment.sol\":2156:2162  amount */\n      dup6\n        /* \"contracts/payment.sol\":2133:2163  abi.encodePacked(this, amount) */\n      add(0x20, mload(0x40))\n      tag_62\n      swap3\n      swap2\n      swap1\n      tag_63\n      jump\t// in\n    tag_62:\n      mload(0x40)\n      0x20\n      dup2\n      dup4\n      sub\n      sub\n      dup2\n      mstore\n      swap1\n      0x40\n      mstore\n        /* \"contracts/payment.sol\":2123:2164  keccak256(abi.encodePacked(this, amount)) */\n      dup1\n      mload\n      swap1\n      0x20\n      add\n      keccak256\n        /* \"contracts/payment.sol\":2114:2122  prefixed */\n      tag_64\n        /* \"contracts/payment.sol\":2114:2165  prefixed(keccak256(abi.encodePacked(this, amount))) */\n      jump\t// in\n    tag_61:\n        /* \"contracts/payment.sol\":2096:2165  bytes32 message = prefixed(keccak256(abi.encodePacked(this, amount))) */\n      swap1\n      pop\n        /* \"contracts/payment.sol\":2284:2290  sender */\n      0x00\n      0x01\n      swap1\n      sload\n      swap1\n      0x0100\n      exp\n      swap1\n      div\n      0xffffffffffffffffffffffffffffffffffffffff\n      and\n        /* \"contracts/payment.sol\":2247:2290  recoverSigner(message, signature) == sender */\n      0xffffffffffffffffffffffffffffffffffffffff\n      and\n        /* \"contracts/payment.sol\":2247:2280  recoverSigner(message, signature) */\n      tag_65\n        /* \"contracts/payment.sol\":2261:2268  message */\n      dup3\n        /* \"contracts/payment.sol\":2270:2279  signature */\n      dup6\n        /* \"contracts/payment.sol\":2247:2260  recoverSigner */\n      tag_66\n        /* \"contracts/payment.sol\":2247:2280  recoverSigner(message, signature) */\n      jump\t// in\n    tag_65:\n        /* \"contracts/payment.sol\":2247:2290  recoverSigner(message, signature) == sender */\n      0xffffffffffffffffffffffffffffffffffffffff\n      and\n      eq\n        /* \"contracts/payment.sol\":2240:2290  return recoverSigner(message, signature) == sender */\n      swap2\n      pop\n      pop\n        /* \"contracts/payment.sol\":1958:2298  function isValidSignature(uint256 amount, bytes memory signature)... */\n      swap3\n      swap2\n      pop\n      pop\n      jump\t// out\n        /* \"contracts/payment.sol\":3252:3411  function prefixed(bytes32 hash) internal pure returns (bytes32) {... */\n    tag_64:\n        /* \"contracts/payment.sol\":3307:3314  bytes32 */\n      0x00\n        /* \"contracts/payment.sol\":3397:3401  hash */\n      dup2\n        /* \"contracts/payment.sol\":3344:3402  abi.encodePacked(\"\\x19Ethereum Signed Message:\\n32\", hash) */\n      add(0x20, mload(0x40))\n      tag_68\n      swap2\n      swap1\n      tag_69\n      jump\t// in\n    tag_68:\n      mload(0x40)\n      0x20\n      dup2\n      dup4\n      sub\n      sub\n      dup2\n      mstore\n      swap1\n      0x40\n      mstore\n        /* \"contracts/payment.sol\":3334:3403  keccak256(abi.encodePacked(\"\\x19Ethereum Signed Message:\\n32\", hash)) */\n      dup1\n      mload\n      swap1\n      0x20\n      add\n      keccak256\n        /* \"contracts/payment.sol\":3327:3403  return keccak256(abi.encodePacked(\"\\x19Ethereum Signed Message:\\n32\", hash)) */\n      swap1\n      pop\n        /* \"contracts/payment.sol\":3252:3411  function prefixed(bytes32 hash) internal pure returns (bytes32) {... */\n      swap2\n      swap1\n      pop\n      jump\t// out\n        /* \"contracts/payment.sol\":2938:3177  function recoverSigner(bytes32 message, bytes memory sig)... */\n    tag_66:\n        /* \"contracts/payment.sol\":3046:3053  address */\n      0x00\n        /* \"contracts/payment.sol\":3072:3079  uint8 v */\n      dup1\n        /* \"contracts/payment.sol\":3081:3090  bytes32 r */\n      0x00\n        /* \"contracts/payment.sol\":3092:3101  bytes32 s */\n      dup1\n        /* \"contracts/payment.sol\":3105:3124  splitSignature(sig) */\n      tag_71\n        /* \"contracts/payment.sol\":3120:3123  sig */\n      dup6\n        /* \"contracts/payment.sol\":3105:3119  splitSignature */\n      tag_72\n        /* \"contracts/payment.sol\":3105:3124  splitSignature(sig) */\n      jump\t// in\n    tag_71:\n        /* \"contracts/payment.sol\":3071:3124  (uint8 v, bytes32 r, bytes32 s) = splitSignature(sig) */\n      swap3\n      pop\n      swap3\n      pop\n      swap3\n      pop\n        /* \"contracts/payment.sol\":3142:3169  ecrecover(message, v, r, s) */\n      0x01\n        /* \"contracts/payment.sol\":3152:3159  message */\n      dup7\n        /* \"contracts/payment.sol\":3161:3162  v */\n      dup5\n        /* \"contracts/payment.sol\":3164:3165  r */\n      dup5\n        /* \"contracts/payment.sol\":3167:3168  s */\n      dup5\n        /* \"contracts/payment.sol\":3142:3169  ecrecover(message, v, r, s) */\n      mload(0x40)\n      0x00\n      dup2\n      mstore\n      0x20\n      add\n      0x40\n      mstore\n      mload(0x40)\n      tag_73\n      swap5\n      swap4\n      swap3\n      swap2\n      swap1\n      tag_74\n      jump\t// in\n    tag_73:\n      0x20\n      mload(0x40)\n      0x20\n      dup2\n      sub\n      swap1\n      dup1\n      dup5\n      sub\n      swap1\n      dup6\n      gas\n      staticcall\n      iszero\n      dup1\n      iszero\n      tag_76\n      jumpi\n      returndatasize\n      0x00\n      dup1\n      returndatacopy\n      revert(0x00, returndatasize)\n    tag_76:\n      pop\n      pop\n      pop\n      mload(sub(mload(0x40), 0x20))\n        /* \"contracts/payment.sol\":3135:3169  return ecrecover(message, v, r, s) */\n      swap4\n      pop\n      pop\n      pop\n      pop\n        /* \"contracts/payment.sol\":2938:3177  function recoverSigner(bytes32 message, bytes memory sig)... */\n      swap3\n      swap2\n      pop\n      pop\n      jump\t// out\n        /* \"contracts/payment.sol\":2426:2930  function splitSignature(bytes memory sig)... */\n    tag_72:\n        /* \"contracts/payment.sol\":2518:2525  uint8 v */\n      0x00\n        /* \"contracts/payment.sol\":2527:2536  bytes32 r */\n      dup1\n        /* \"contracts/payment.sol\":2538:2547  bytes32 s */\n      0x00\n        /* \"contracts/payment.sol\":2587:2589  65 */\n      0x41\n        /* \"contracts/payment.sol\":2573:2576  sig */\n      dup5\n        /* \"contracts/payment.sol\":2573:2583  sig.length */\n      mload\n        /* \"contracts/payment.sol\":2573:2589  sig.length == 65 */\n      eq\n        /* \"contracts/payment.sol\":2565:2590  require(sig.length == 65) */\n      tag_78\n      jumpi\n      0x00\n      dup1\n      revert\n    tag_78:\n        /* \"contracts/payment.sol\":2703:2705  32 */\n      0x20\n        /* \"contracts/payment.sol\":2698:2701  sig */\n      dup5\n        /* \"contracts/payment.sol\":2694:2706  add(sig, 32) */\n      add\n        /* \"contracts/payment.sol\":2688:2707  mload(add(sig, 32)) */\n      mload\n        /* \"contracts/payment.sol\":2683:2707  r := mload(add(sig, 32)) */\n      swap2\n      pop\n        /* \"contracts/payment.sol\":2773:2775  64 */\n      0x40\n        /* \"contracts/payment.sol\":2768:2771  sig */\n      dup5\n        /* \"contracts/payment.sol\":2764:2776  add(sig, 64) */\n      add\n        /* \"contracts/payment.sol\":2758:2777  mload(add(sig, 64)) */\n      mload\n        /* \"contracts/payment.sol\":2753:2777  s := mload(add(sig, 64)) */\n      swap1\n      pop\n        /* \"contracts/payment.sol\":2880:2882  96 */\n      0x60\n        /* \"contracts/payment.sol\":2875:2878  sig */\n      dup5\n        /* \"contracts/payment.sol\":2871:2883  add(sig, 96) */\n      add\n        /* \"contracts/payment.sol\":2865:2884  mload(add(sig, 96)) */\n      mload\n        /* \"contracts/payment.sol\":2862:2863  0 */\n      0x00\n        /* \"contracts/payment.sol\":2857:2885  byte(0, mload(add(sig, 96))) */\n      byte\n        /* \"contracts/payment.sol\":2852:2885  v := byte(0, mload(add(sig, 96))) */\n      swap3\n      pop\n        /* \"contracts/payment.sol\":2426:2930  function splitSignature(bytes memory sig)... */\n      swap2\n      swap4\n      swap1\n      swap3\n      pop\n      jump\t// out\n        /* \"#utility.yul\":7:82   */\n    tag_79:\n        /* \"#utility.yul\":40:46   */\n      0x00\n        /* \"#utility.yul\":73:75   */\n      0x40\n        /* \"#utility.yul\":67:76   */\n      mload\n        /* \"#utility.yul\":57:76   */\n      swap1\n      pop\n        /* \"#utility.yul\":7:82   */\n      swap1\n      jump\t// out\n        /* \"#utility.yul\":88:205   */\n    tag_80:\n        /* \"#utility.yul\":197:198   */\n      0x00\n        /* \"#utility.yul\":194:195   */\n      dup1\n        /* \"#utility.yul\":187:199   */\n      revert\n        /* \"#utility.yul\":211:328   */\n    tag_81:\n        /* \"#utility.yul\":320:321   */\n      0x00\n        /* \"#utility.yul\":317:318   */\n      dup1\n        /* \"#utility.yul\":310:322   */\n      revert\n        /* \"#utility.yul\":334:411   */\n    tag_82:\n        /* \"#utility.yul\":371:378   */\n      0x00\n        /* \"#utility.yul\":400:405   */\n      dup2\n        /* \"#utility.yul\":389:405   */\n      swap1\n      pop\n        /* \"#utility.yul\":334:411   */\n      swap2\n      swap1\n      pop\n      jump\t// out\n        /* \"#utility.yul\":417:539   */\n    tag_83:\n        /* \"#utility.yul\":490:514   */\n      tag_127\n        /* \"#utility.yul\":508:513   */\n      dup2\n        /* \"#utility.yul\":490:514   */\n      tag_82\n      jump\t// in\n    tag_127:\n        /* \"#utility.yul\":483:488   */\n      dup2\n        /* \"#utility.yul\":480:515   */\n      eq\n        /* \"#utility.yul\":470:533   */\n      tag_128\n      jumpi\n        /* \"#utility.yul\":529:530   */\n      0x00\n        /* \"#utility.yul\":526:527   */\n      dup1\n        /* \"#utility.yul\":519:531   */\n      revert\n        /* \"#utility.yul\":470:533   */\n    tag_128:\n        /* \"#utility.yul\":417:539   */\n      pop\n      jump\t// out\n        /* \"#utility.yul\":545:684   */\n    tag_84:\n        /* \"#utility.yul\":591:596   */\n      0x00\n        /* \"#utility.yul\":629:635   */\n      dup2\n        /* \"#utility.yul\":616:636   */\n      calldataload\n        /* \"#utility.yul\":607:636   */\n      swap1\n      pop\n        /* \"#utility.yul\":645:678   */\n      tag_130\n        /* \"#utility.yul\":672:677   */\n      dup2\n        /* \"#utility.yul\":645:678   */\n      tag_83\n      jump\t// in\n    tag_130:\n        /* \"#utility.yul\":545:684   */\n      swap3\n      swap2\n      pop\n      pop\n      jump\t// out\n        /* \"#utility.yul\":690:807   */\n    tag_85:\n        /* \"#utility.yul\":799:800   */\n      0x00\n        /* \"#utility.yul\":796:797   */\n      dup1\n        /* \"#utility.yul\":789:801   */\n      revert\n        /* \"#utility.yul\":813:930   */\n    tag_86:\n        /* \"#utility.yul\":922:923   */\n      0x00\n        /* \"#utility.yul\":919:920   */\n      dup1\n        /* \"#utility.yul\":912:924   */\n      revert\n        /* \"#utility.yul\":936:1038   */\n    tag_87:\n        /* \"#utility.yul\":977:983   */\n      0x00\n        /* \"#utility.yul\":1028:1030   */\n      0x1f\n        /* \"#utility.yul\":1024:1031   */\n      not\n        /* \"#utility.yul\":1019:1021   */\n      0x1f\n        /* \"#utility.yul\":1012:1017   */\n      dup4\n        /* \"#utility.yul\":1008:1022   */\n      add\n        /* \"#utility.yul\":1004:1032   */\n      and\n        /* \"#utility.yul\":994:1032   */\n      swap1\n      pop\n        /* \"#utility.yul\":936:1038   */\n      swap2\n      swap1\n      pop\n      jump\t// out\n        /* \"#utility.yul\":1044:1224   */\n    tag_88:\n        /* \"#utility.yul\":1092:1169   */\n      0x4e487b7100000000000000000000000000000000000000000000000000000000\n        /* \"#utility.yul\":1089:1090   */\n      0x00\n        /* \"#utility.yul\":1082:1170   */\n      mstore\n        /* \"#utility.yul\":1189:1193   */\n      0x41\n        /* \"#utility.yul\":1186:1187   */\n      0x04\n        /* \"#utility.yul\":1179:1194   */\n      mstore\n        /* \"#utility.yul\":1213:1217   */\n      0x24\n        /* \"#utility.yul\":1210:1211   */\n      0x00\n        /* \"#utility.yul\":1203:1218   */\n      revert\n        /* \"#utility.yul\":1230:1511   */\n    tag_89:\n        /* \"#utility.yul\":1313:1340   */\n      tag_136\n        /* \"#utility.yul\":1335:1339   */\n      dup3\n        /* \"#utility.yul\":1313:1340   */\n      tag_87\n      jump\t// in\n    tag_136:\n        /* \"#utility.yul\":1305:1311   */\n      dup2\n        /* \"#utility.yul\":1301:1341   */\n      add\n        /* \"#utility.yul\":1443:1449   */\n      dup2\n        /* \"#utility.yul\":1431:1441   */\n      dup2\n        /* \"#utility.yul\":1428:1450   */\n      lt\n        /* \"#utility.yul\":1407:1425   */\n      0xffffffffffffffff\n        /* \"#utility.yul\":1395:1405   */\n      dup3\n        /* \"#utility.yul\":1392:1426   */\n      gt\n        /* \"#utility.yul\":1389:1451   */\n      or\n        /* \"#utility.yul\":1386:1474   */\n      iszero\n      tag_137\n      jumpi\n        /* \"#utility.yul\":1454:1472   */\n      tag_138\n      tag_88\n      jump\t// in\n    tag_138:\n        /* \"#utility.yul\":1386:1474   */\n    tag_137:\n        /* \"#utility.yul\":1494:1504   */\n      dup1\n        /* \"#utility.yul\":1490:1492   */\n      0x40\n        /* \"#utility.yul\":1483:1505   */\n      mstore\n        /* \"#utility.yul\":1273:1511   */\n      pop\n        /* \"#utility.yul\":1230:1511   */\n      pop\n      pop\n      jump\t// out\n        /* \"#utility.yul\":1517:1646   */\n    tag_90:\n        /* \"#utility.yul\":1551:1557   */\n      0x00\n        /* \"#utility.yul\":1578:1598   */\n      tag_140\n      tag_79\n      jump\t// in\n    tag_140:\n        /* \"#utility.yul\":1568:1598   */\n      swap1\n      pop\n        /* \"#utility.yul\":1607:1640   */\n      tag_141\n        /* \"#utility.yul\":1635:1639   */\n      dup3\n        /* \"#utility.yul\":1627:1633   */\n      dup3\n        /* \"#utility.yul\":1607:1640   */\n      tag_89\n      jump\t// in\n    tag_141:\n        /* \"#utility.yul\":1517:1646   */\n      swap2\n      swap1\n      pop\n      jump\t// out\n        /* \"#utility.yul\":1652:1959   */\n    tag_91:\n        /* \"#utility.yul\":1713:1717   */\n      0x00\n        /* \"#utility.yul\":1803:1821   */\n      0xffffffffffffffff\n        /* \"#utility.yul\":1795:1801   */\n      dup3\n        /* \"#utility.yul\":1792:1822   */\n      gt\n        /* \"#utility.yul\":1789:1845   */\n      iszero\n      tag_143\n      jumpi\n        /* \"#utility.yul\":1825:1843   */\n      tag_144\n      tag_88\n      jump\t// in\n    tag_144:\n        /* \"#utility.yul\":1789:1845   */\n    tag_143:\n        /* \"#utility.yul\":1863:1892   */\n      tag_145\n        /* \"#utility.yul\":1885:1891   */\n      dup3\n        /* \"#utility.yul\":1863:1892   */\n      tag_87\n      jump\t// in\n    tag_145:\n        /* \"#utility.yul\":1855:1892   */\n      swap1\n      pop\n        /* \"#utility.yul\":1947:1951   */\n      0x20\n        /* \"#utility.yul\":1941:1945   */\n      dup2\n        /* \"#utility.yul\":1937:1952   */\n      add\n        /* \"#utility.yul\":1929:1952   */\n      swap1\n      pop\n        /* \"#utility.yul\":1652:1959   */\n      swap2\n      swap1\n      pop\n      jump\t// out\n        /* \"#utility.yul\":1965:2113   */\n    tag_92:\n        /* \"#utility.yul\":2063:2069   */\n      dup3\n        /* \"#utility.yul\":2058:2061   */\n      dup2\n        /* \"#utility.yul\":2053:2056   */\n      dup4\n        /* \"#utility.yul\":2040:2070   */\n      calldatacopy\n        /* \"#utility.yul\":2104:2105   */\n      0x00\n        /* \"#utility.yul\":2095:2101   */\n      dup4\n        /* \"#utility.yul\":2090:2093   */\n      dup4\n        /* \"#utility.yul\":2086:2102   */\n      add\n        /* \"#utility.yul\":2079:2106   */\n      mstore\n        /* \"#utility.yul\":1965:2113   */\n      pop\n      pop\n      pop\n      jump\t// out\n        /* \"#utility.yul\":2119:2542   */\n    tag_93:\n        /* \"#utility.yul\":2196:2201   */\n      0x00\n        /* \"#utility.yul\":2221:2286   */\n      tag_148\n        /* \"#utility.yul\":2237:2285   */\n      tag_149\n        /* \"#utility.yul\":2278:2284   */\n      dup5\n        /* \"#utility.yul\":2237:2285   */\n      tag_91\n      jump\t// in\n    tag_149:\n        /* \"#utility.yul\":2221:2286   */\n      tag_90\n      jump\t// in\n    tag_148:\n        /* \"#utility.yul\":2212:2286   */\n      swap1\n      pop\n        /* \"#utility.yul\":2309:2315   */\n      dup3\n        /* \"#utility.yul\":2302:2307   */\n      dup2\n        /* \"#utility.yul\":2295:2316   */\n      mstore\n        /* \"#utility.yul\":2347:2351   */\n      0x20\n        /* \"#utility.yul\":2340:2345   */\n      dup2\n        /* \"#utility.yul\":2336:2352   */\n      add\n        /* \"#utility.yul\":2385:2388   */\n      dup5\n        /* \"#utility.yul\":2376:2382   */\n      dup5\n        /* \"#utility.yul\":2371:2374   */\n      dup5\n        /* \"#utility.yul\":2367:2383   */\n      add\n        /* \"#utility.yul\":2364:2389   */\n      gt\n        /* \"#utility.yul\":2361:2473   */\n      iszero\n      tag_150\n      jumpi\n        /* \"#utility.yul\":2392:2471   */\n      tag_151\n      tag_86\n      jump\t// in\n    tag_151:\n        /* \"#utility.yul\":2361:2473   */\n    tag_150:\n        /* \"#utility.yul\":2482:2536   */\n      tag_152\n        /* \"#utility.yul\":2529:2535   */\n      dup5\n        /* \"#utility.yul\":2524:2527   */\n      dup3\n        /* \"#utility.yul\":2519:2522   */\n      dup6\n        /* \"#utility.yul\":2482:2536   */\n      tag_92\n      jump\t// in\n    tag_152:\n        /* \"#utility.yul\":2202:2542   */\n      pop\n        /* \"#utility.yul\":2119:2542   */\n      swap4\n      swap3\n      pop\n      pop\n      pop\n      jump\t// out\n        /* \"#utility.yul\":2561:2899   */\n    tag_94:\n        /* \"#utility.yul\":2616:2621   */\n      0x00\n        /* \"#utility.yul\":2665:2668   */\n      dup3\n        /* \"#utility.yul\":2658:2662   */\n      0x1f\n        /* \"#utility.yul\":2650:2656   */\n      dup4\n        /* \"#utility.yul\":2646:2663   */\n      add\n        /* \"#utility.yul\":2642:2669   */\n      slt\n        /* \"#utility.yul\":2632:2754   */\n      tag_154\n      jumpi\n        /* \"#utility.yul\":2673:2752   */\n      tag_155\n      tag_85\n      jump\t// in\n    tag_155:\n        /* \"#utility.yul\":2632:2754   */\n    tag_154:\n        /* \"#utility.yul\":2790:2796   */\n      dup2\n        /* \"#utility.yul\":2777:2797   */\n      calldataload\n        /* \"#utility.yul\":2815:2893   */\n      tag_156\n        /* \"#utility.yul\":2889:2892   */\n      dup5\n        /* \"#utility.yul\":2881:2887   */\n      dup3\n        /* \"#utility.yul\":2874:2878   */\n      0x20\n        /* \"#utility.yul\":2866:2872   */\n      dup7\n        /* \"#utility.yul\":2862:2879   */\n      add\n        /* \"#utility.yul\":2815:2893   */\n      tag_93\n      jump\t// in\n    tag_156:\n        /* \"#utility.yul\":2806:2893   */\n      swap2\n      pop\n        /* \"#utility.yul\":2622:2899   */\n      pop\n        /* \"#utility.yul\":2561:2899   */\n      swap3\n      swap2\n      pop\n      pop\n      jump\t// out\n        /* \"#utility.yul\":2905:3557   */\n    tag_13:\n        /* \"#utility.yul\":2982:2988   */\n      0x00\n        /* \"#utility.yul\":2990:2996   */\n      dup1\n        /* \"#utility.yul\":3039:3041   */\n      0x40\n        /* \"#utility.yul\":3027:3036   */\n      dup4\n        /* \"#utility.yul\":3018:3025   */\n      dup6\n        /* \"#utility.yul\":3014:3037   */\n      sub\n        /* \"#utility.yul\":3010:3042   */\n      slt\n        /* \"#utility.yul\":3007:3126   */\n      iszero\n      tag_158\n      jumpi\n        /* \"#utility.yul\":3045:3124   */\n      tag_159\n      tag_80\n      jump\t// in\n    tag_159:\n        /* \"#utility.yul\":3007:3126   */\n    tag_158:\n        /* \"#utility.yul\":3165:3166   */\n      0x00\n        /* \"#utility.yul\":3190:3243   */\n      tag_160\n        /* \"#utility.yul\":3235:3242   */\n      dup6\n        /* \"#utility.yul\":3226:3232   */\n      dup3\n        /* \"#utility.yul\":3215:3224   */\n      dup7\n        /* \"#utility.yul\":3211:3233   */\n      add\n        /* \"#utility.yul\":3190:3243   */\n      tag_84\n      jump\t// in\n    tag_160:\n        /* \"#utility.yul\":3180:3243   */\n      swap3\n      pop\n        /* \"#utility.yul\":3136:3253   */\n      pop\n        /* \"#utility.yul\":3320:3322   */\n      0x20\n        /* \"#utility.yul\":3309:3318   */\n      dup4\n        /* \"#utility.yul\":3305:3323   */\n      add\n        /* \"#utility.yul\":3292:3324   */\n      calldataload\n        /* \"#utility.yul\":3351:3369   */\n      0xffffffffffffffff\n        /* \"#utility.yul\":3343:3349   */\n      dup2\n        /* \"#utility.yul\":3340:3370   */\n      gt\n        /* \"#utility.yul\":3337:3454   */\n      iszero\n      tag_161\n      jumpi\n        /* \"#utility.yul\":3373:3452   */\n      tag_162\n      tag_81\n      jump\t// in\n    tag_162:\n        /* \"#utility.yul\":3337:3454   */\n    tag_161:\n        /* \"#utility.yul\":3478:3540   */\n      tag_163\n        /* \"#utility.yul\":3532:3539   */\n      dup6\n        /* \"#utility.yul\":3523:3529   */\n      dup3\n        /* \"#utility.yul\":3512:3521   */\n      dup7\n        /* \"#utility.yul\":3508:3530   */\n      add\n        /* \"#utility.yul\":3478:3540   */\n      tag_94\n      jump\t// in\n    tag_163:\n        /* \"#utility.yul\":3468:3540   */\n      swap2\n      pop\n        /* \"#utility.yul\":3263:3550   */\n      pop\n        /* \"#utility.yul\":2905:3557   */\n      swap3\n      pop\n      swap3\n      swap1\n      pop\n      jump\t// out\n        /* \"#utility.yul\":3563:3681   */\n    tag_95:\n        /* \"#utility.yul\":3650:3674   */\n      tag_165\n        /* \"#utility.yul\":3668:3673   */\n      dup2\n        /* \"#utility.yul\":3650:3674   */\n      tag_82\n      jump\t// in\n    tag_165:\n        /* \"#utility.yul\":3645:3648   */\n      dup3\n        /* \"#utility.yul\":3638:3675   */\n      mstore\n        /* \"#utility.yul\":3563:3681   */\n      pop\n      pop\n      jump\t// out\n        /* \"#utility.yul\":3687:3909   */\n    tag_18:\n        /* \"#utility.yul\":3780:3784   */\n      0x00\n        /* \"#utility.yul\":3818:3820   */\n      0x20\n        /* \"#utility.yul\":3807:3816   */\n      dup3\n        /* \"#utility.yul\":3803:3821   */\n      add\n        /* \"#utility.yul\":3795:3821   */\n      swap1\n      pop\n        /* \"#utility.yul\":3831:3902   */\n      tag_167\n        /* \"#utility.yul\":3899:3900   */\n      0x00\n        /* \"#utility.yul\":3888:3897   */\n      dup4\n        /* \"#utility.yul\":3884:3901   */\n      add\n        /* \"#utility.yul\":3875:3881   */\n      dup5\n        /* \"#utility.yul\":3831:3902   */\n      tag_95\n      jump\t// in\n    tag_167:\n        /* \"#utility.yul\":3687:3909   */\n      swap3\n      swap2\n      pop\n      pop\n      jump\t// out\n        /* \"#utility.yul\":3915:4041   */\n    tag_96:\n        /* \"#utility.yul\":3952:3959   */\n      0x00\n        /* \"#utility.yul\":3992:4034   */\n      0xffffffffffffffffffffffffffffffffffffffff\n        /* \"#utility.yul\":3985:3990   */\n      dup3\n        /* \"#utility.yul\":3981:4035   */\n      and\n        /* \"#utility.yul\":3970:4035   */\n      swap1\n      pop\n        /* \"#utility.yul\":3915:4041   */\n      swap2\n      swap1\n      pop\n      jump\t// out\n        /* \"#utility.yul\":4047:4151   */\n    tag_97:\n        /* \"#utility.yul\":4092:4099   */\n      0x00\n        /* \"#utility.yul\":4121:4145   */\n      tag_170\n        /* \"#utility.yul\":4139:4144   */\n      dup3\n        /* \"#utility.yul\":4121:4145   */\n      tag_96\n      jump\t// in\n    tag_170:\n        /* \"#utility.yul\":4110:4145   */\n      swap1\n      pop\n        /* \"#utility.yul\":4047:4151   */\n      swap2\n      swap1\n      pop\n      jump\t// out\n        /* \"#utility.yul\":4157:4299   */\n    tag_98:\n        /* \"#utility.yul\":4260:4292   */\n      tag_172\n        /* \"#utility.yul\":4286:4291   */\n      dup2\n        /* \"#utility.yul\":4260:4292   */\n      tag_97\n      jump\t// in\n    tag_172:\n        /* \"#utility.yul\":4255:4258   */\n      dup3\n        /* \"#utility.yul\":4248:4293   */\n      mstore\n        /* \"#utility.yul\":4157:4299   */\n      pop\n      pop\n      jump\t// out\n        /* \"#utility.yul\":4305:4559   */\n    tag_22:\n        /* \"#utility.yul\":4414:4418   */\n      0x00\n        /* \"#utility.yul\":4452:4454   */\n      0x20\n        /* \"#utility.yul\":4441:4450   */\n      dup3\n        /* \"#utility.yul\":4437:4455   */\n      add\n        /* \"#utility.yul\":4429:4455   */\n      swap1\n      pop\n        /* \"#utility.yul\":4465:4552   */\n      tag_174\n        /* \"#utility.yul\":4549:4550   */\n      0x00\n        /* \"#utility.yul\":4538:4547   */\n      dup4\n        /* \"#utility.yul\":4534:4551   */\n      add\n        /* \"#utility.yul\":4525:4531   */\n      dup5\n        /* \"#utility.yul\":4465:4552   */\n      tag_98\n      jump\t// in\n    tag_174:\n        /* \"#utility.yul\":4305:4559   */\n      swap3\n      swap2\n      pop\n      pop\n      jump\t// out\n        /* \"#utility.yul\":4565:4894   */\n    tag_28:\n        /* \"#utility.yul\":4624:4630   */\n      0x00\n        /* \"#utility.yul\":4673:4675   */\n      0x20\n        /* \"#utility.yul\":4661:4670   */\n      dup3\n        /* \"#utility.yul\":4652:4659   */\n      dup5\n        /* \"#utility.yul\":4648:4671   */\n      sub\n        /* \"#utility.yul\":4644:4676   */\n      slt\n        /* \"#utility.yul\":4641:4760   */\n      iszero\n      tag_176\n      jumpi\n        /* \"#utility.yul\":4679:4758   */\n      tag_177\n      tag_80\n      jump\t// in\n    tag_177:\n        /* \"#utility.yul\":4641:4760   */\n    tag_176:\n        /* \"#utility.yul\":4799:4800   */\n      0x00\n        /* \"#utility.yul\":4824:4877   */\n      tag_178\n        /* \"#utility.yul\":4869:4876   */\n      dup5\n        /* \"#utility.yul\":4860:4866   */\n      dup3\n        /* \"#utility.yul\":4849:4858   */\n      dup6\n        /* \"#utility.yul\":4845:4867   */\n      add\n        /* \"#utility.yul\":4824:4877   */\n      tag_84\n      jump\t// in\n    tag_178:\n        /* \"#utility.yul\":4814:4877   */\n      swap2\n      pop\n        /* \"#utility.yul\":4770:4887   */\n      pop\n        /* \"#utility.yul\":4565:4894   */\n      swap3\n      swap2\n      pop\n      pop\n      jump\t// out\n        /* \"#utility.yul\":4900:5069   */\n    tag_99:\n        /* \"#utility.yul\":4984:4995   */\n      0x00\n        /* \"#utility.yul\":5018:5024   */\n      dup3\n        /* \"#utility.yul\":5013:5016   */\n      dup3\n        /* \"#utility.yul\":5006:5025   */\n      mstore\n        /* \"#utility.yul\":5058:5062   */\n      0x20\n        /* \"#utility.yul\":5053:5056   */\n      dup3\n        /* \"#utility.yul\":5049:5063   */\n      add\n        /* \"#utility.yul\":5034:5063   */\n      swap1\n      pop\n        /* \"#utility.yul\":4900:5069   */\n      swap3\n      swap2\n      pop\n      pop\n      jump\t// out\n        /* \"#utility.yul\":5075:5243   */\n    tag_100:\n        /* \"#utility.yul\":5215:5235   */\n      0x496e61637469766520436f6e74726163742e0000000000000000000000000000\n        /* \"#utility.yul\":5211:5212   */\n      0x00\n        /* \"#utility.yul\":5203:5209   */\n      dup3\n        /* \"#utility.yul\":5199:5213   */\n      add\n        /* \"#utility.yul\":5192:5236   */\n      mstore\n        /* \"#utility.yul\":5075:5243   */\n      pop\n      jump\t// out\n        /* \"#utility.yul\":5249:5615   */\n    tag_101:\n        /* \"#utility.yul\":5391:5394   */\n      0x00\n        /* \"#utility.yul\":5412:5479   */\n      tag_182\n        /* \"#utility.yul\":5476:5478   */\n      0x12\n        /* \"#utility.yul\":5471:5474   */\n      dup4\n        /* \"#utility.yul\":5412:5479   */\n      tag_99\n      jump\t// in\n    tag_182:\n        /* \"#utility.yul\":5405:5479   */\n      swap2\n      pop\n        /* \"#utility.yul\":5488:5581   */\n      tag_183\n        /* \"#utility.yul\":5577:5580   */\n      dup3\n        /* \"#utility.yul\":5488:5581   */\n      tag_100\n      jump\t// in\n    tag_183:\n        /* \"#utility.yul\":5606:5608   */\n      0x20\n        /* \"#utility.yul\":5601:5604   */\n      dup3\n        /* \"#utility.yul\":5597:5609   */\n      add\n        /* \"#utility.yul\":5590:5609   */\n      swap1\n      pop\n        /* \"#utility.yul\":5249:5615   */\n      swap2\n      swap1\n      pop\n      jump\t// out\n        /* \"#utility.yul\":5621:6040   */\n    tag_33:\n        /* \"#utility.yul\":5787:5791   */\n      0x00\n        /* \"#utility.yul\":5825:5827   */\n      0x20\n        /* \"#utility.yul\":5814:5823   */\n      dup3\n        /* \"#utility.yul\":5810:5828   */\n      add\n        /* \"#utility.yul\":5802:5828   */\n      swap1\n      pop\n        /* \"#utility.yul\":5874:5883   */\n      dup2\n        /* \"#utility.yul\":5868:5872   */\n      dup2\n        /* \"#utility.yul\":5864:5884   */\n      sub\n        /* \"#utility.yul\":5860:5861   */\n      0x00\n        /* \"#utility.yul\":5849:5858   */\n      dup4\n        /* \"#utility.yul\":5845:5862   */\n      add\n        /* \"#utility.yul\":5838:5885   */\n      mstore\n        /* \"#utility.yul\":5902:6033   */\n      tag_185\n        /* \"#utility.yul\":6028:6032   */\n      dup2\n        /* \"#utility.yul\":5902:6033   */\n      tag_101\n      jump\t// in\n    tag_185:\n        /* \"#utility.yul\":5894:6033   */\n      swap1\n      pop\n        /* \"#utility.yul\":5621:6040   */\n      swap2\n      swap1\n      pop\n      jump\t// out\n        /* \"#utility.yul\":6046:6106   */\n    tag_102:\n        /* \"#utility.yul\":6074:6077   */\n      0x00\n        /* \"#utility.yul\":6095:6100   */\n      dup2\n        /* \"#utility.yul\":6088:6100   */\n      swap1\n      pop\n        /* \"#utility.yul\":6046:6106   */\n      swap2\n      swap1\n      pop\n      jump\t// out\n        /* \"#utility.yul\":6112:6254   */\n    tag_103:\n        /* \"#utility.yul\":6162:6171   */\n      0x00\n        /* \"#utility.yul\":6195:6248   */\n      tag_188\n        /* \"#utility.yul\":6213:6247   */\n      tag_189\n        /* \"#utility.yul\":6222:6246   */\n      tag_190\n        /* \"#utility.yul\":6240:6245   */\n      dup5\n        /* \"#utility.yul\":6222:6246   */\n      tag_96\n      jump\t// in\n    tag_190:\n        /* \"#utility.yul\":6213:6247   */\n      tag_102\n      jump\t// in\n    tag_189:\n        /* \"#utility.yul\":6195:6248   */\n      tag_96\n      jump\t// in\n    tag_188:\n        /* \"#utility.yul\":6182:6248   */\n      swap1\n      pop\n        /* \"#utility.yul\":6112:6254   */\n      swap2\n      swap1\n      pop\n      jump\t// out\n        /* \"#utility.yul\":6260:6386   */\n    tag_104:\n        /* \"#utility.yul\":6310:6319   */\n      0x00\n        /* \"#utility.yul\":6343:6380   */\n      tag_192\n        /* \"#utility.yul\":6374:6379   */\n      dup3\n        /* \"#utility.yul\":6343:6380   */\n      tag_103\n      jump\t// in\n    tag_192:\n        /* \"#utility.yul\":6330:6380   */\n      swap1\n      pop\n        /* \"#utility.yul\":6260:6386   */\n      swap2\n      swap1\n      pop\n      jump\t// out\n        /* \"#utility.yul\":6392:6546   */\n    tag_105:\n        /* \"#utility.yul\":6470:6479   */\n      0x00\n        /* \"#utility.yul\":6503:6540   */\n      tag_194\n        /* \"#utility.yul\":6534:6539   */\n      dup3\n        /* \"#utility.yul\":6503:6540   */\n      tag_104\n      jump\t// in\n    tag_194:\n        /* \"#utility.yul\":6490:6540   */\n      swap1\n      pop\n        /* \"#utility.yul\":6392:6546   */\n      swap2\n      swap1\n      pop\n      jump\t// out\n        /* \"#utility.yul\":6552:6646   */\n    tag_106:\n        /* \"#utility.yul\":6585:6593   */\n      0x00\n        /* \"#utility.yul\":6633:6638   */\n      dup2\n        /* \"#utility.yul\":6629:6631   */\n      0x60\n        /* \"#utility.yul\":6625:6639   */\n      shl\n        /* \"#utility.yul\":6604:6639   */\n      swap1\n      pop\n        /* \"#utility.yul\":6552:6646   */\n      swap2\n      swap1\n      pop\n      jump\t// out\n        /* \"#utility.yul\":6652:6746   */\n    tag_107:\n        /* \"#utility.yul\":6691:6698   */\n      0x00\n        /* \"#utility.yul\":6720:6740   */\n      tag_197\n        /* \"#utility.yul\":6734:6739   */\n      dup3\n        /* \"#utility.yul\":6720:6740   */\n      tag_106\n      jump\t// in\n    tag_197:\n        /* \"#utility.yul\":6709:6740   */\n      swap1\n      pop\n        /* \"#utility.yul\":6652:6746   */\n      swap2\n      swap1\n      pop\n      jump\t// out\n        /* \"#utility.yul\":6752:6852   */\n    tag_108:\n        /* \"#utility.yul\":6791:6798   */\n      0x00\n        /* \"#utility.yul\":6820:6846   */\n      tag_199\n        /* \"#utility.yul\":6840:6845   */\n      dup3\n        /* \"#utility.yul\":6820:6846   */\n      tag_107\n      jump\t// in\n    tag_199:\n        /* \"#utility.yul\":6809:6846   */\n      swap1\n      pop\n        /* \"#utility.yul\":6752:6852   */\n      swap2\n      swap1\n      pop\n      jump\t// out\n        /* \"#utility.yul\":6858:7084   */\n    tag_109:\n        /* \"#utility.yul\":6991:7077   */\n      tag_201\n        /* \"#utility.yul\":7011:7076   */\n      tag_202\n        /* \"#utility.yul\":7070:7075   */\n      dup3\n        /* \"#utility.yul\":7011:7076   */\n      tag_105\n      jump\t// in\n    tag_202:\n        /* \"#utility.yul\":6991:7077   */\n      tag_108\n      jump\t// in\n    tag_201:\n        /* \"#utility.yul\":6986:6989   */\n      dup3\n        /* \"#utility.yul\":6979:7078   */\n      mstore\n        /* \"#utility.yul\":6858:7084   */\n      pop\n      pop\n      jump\t// out\n        /* \"#utility.yul\":7090:7169   */\n    tag_110:\n        /* \"#utility.yul\":7129:7136   */\n      0x00\n        /* \"#utility.yul\":7158:7163   */\n      dup2\n        /* \"#utility.yul\":7147:7163   */\n      swap1\n      pop\n        /* \"#utility.yul\":7090:7169   */\n      swap2\n      swap1\n      pop\n      jump\t// out\n        /* \"#utility.yul\":7175:7332   */\n    tag_111:\n        /* \"#utility.yul\":7280:7325   */\n      tag_205\n        /* \"#utility.yul\":7300:7324   */\n      tag_206\n        /* \"#utility.yul\":7318:7323   */\n      dup3\n        /* \"#utility.yul\":7300:7324   */\n      tag_82\n      jump\t// in\n    tag_206:\n        /* \"#utility.yul\":7280:7325   */\n      tag_110\n      jump\t// in\n    tag_205:\n        /* \"#utility.yul\":7275:7278   */\n      dup3\n        /* \"#utility.yul\":7268:7326   */\n      mstore\n        /* \"#utility.yul\":7175:7332   */\n      pop\n      pop\n      jump\t// out\n        /* \"#utility.yul\":7338:7791   */\n    tag_63:\n        /* \"#utility.yul\":7506:7509   */\n      0x00\n        /* \"#utility.yul\":7521:7624   */\n      tag_208\n        /* \"#utility.yul\":7620:7623   */\n      dup3\n        /* \"#utility.yul\":7611:7617   */\n      dup6\n        /* \"#utility.yul\":7521:7624   */\n      tag_109\n      jump\t// in\n    tag_208:\n        /* \"#utility.yul\":7649:7651   */\n      0x14\n        /* \"#utility.yul\":7644:7647   */\n      dup3\n        /* \"#utility.yul\":7640:7652   */\n      add\n        /* \"#utility.yul\":7633:7652   */\n      swap2\n      pop\n        /* \"#utility.yul\":7662:7737   */\n      tag_209\n        /* \"#utility.yul\":7733:7736   */\n      dup3\n        /* \"#utility.yul\":7724:7730   */\n      dup5\n        /* \"#utility.yul\":7662:7737   */\n      tag_111\n      jump\t// in\n    tag_209:\n        /* \"#utility.yul\":7762:7764   */\n      0x20\n        /* \"#utility.yul\":7757:7760   */\n      dup3\n        /* \"#utility.yul\":7753:7765   */\n      add\n        /* \"#utility.yul\":7746:7765   */\n      swap2\n      pop\n        /* \"#utility.yul\":7782:7785   */\n      dup2\n        /* \"#utility.yul\":7775:7785   */\n      swap1\n      pop\n        /* \"#utility.yul\":7338:7791   */\n      swap4\n      swap3\n      pop\n      pop\n      pop\n      jump\t// out\n        /* \"#utility.yul\":7797:7945   */\n    tag_112:\n        /* \"#utility.yul\":7899:7910   */\n      0x00\n        /* \"#utility.yul\":7936:7939   */\n      dup2\n        /* \"#utility.yul\":7921:7939   */\n      swap1\n      pop\n        /* \"#utility.yul\":7797:7945   */\n      swap3\n      swap2\n      pop\n      pop\n      jump\t// out\n        /* \"#utility.yul\":7951:8165   */\n    tag_113:\n        /* \"#utility.yul\":8091:8157   */\n      0x19457468657265756d205369676e6564204d6573736167653a0a333200000000\n        /* \"#utility.yul\":8087:8088   */\n      0x00\n        /* \"#utility.yul\":8079:8085   */\n      dup3\n        /* \"#utility.yul\":8075:8089   */\n      add\n        /* \"#utility.yul\":8068:8158   */\n      mstore\n        /* \"#utility.yul\":7951:8165   */\n      pop\n      jump\t// out\n        /* \"#utility.yul\":8171:8573   */\n    tag_114:\n        /* \"#utility.yul\":8331:8334   */\n      0x00\n        /* \"#utility.yul\":8352:8437   */\n      tag_213\n        /* \"#utility.yul\":8434:8436   */\n      0x1c\n        /* \"#utility.yul\":8429:8432   */\n      dup4\n        /* \"#utility.yul\":8352:8437   */\n      tag_112\n      jump\t// in\n    tag_213:\n        /* \"#utility.yul\":8345:8437   */\n      swap2\n      pop\n        /* \"#utility.yul\":8446:8539   */\n      tag_214\n        /* \"#utility.yul\":8535:8538   */\n      dup3\n        /* \"#utility.yul\":8446:8539   */\n      tag_113\n      jump\t// in\n    tag_214:\n        /* \"#utility.yul\":8564:8566   */\n      0x1c\n        /* \"#utility.yul\":8559:8562   */\n      dup3\n        /* \"#utility.yul\":8555:8567   */\n      add\n        /* \"#utility.yul\":8548:8567   */\n      swap1\n      pop\n        /* \"#utility.yul\":8171:8573   */\n      swap2\n      swap1\n      pop\n      jump\t// out\n        /* \"#utility.yul\":8579:8656   */\n    tag_115:\n        /* \"#utility.yul\":8616:8623   */\n      0x00\n        /* \"#utility.yul\":8645:8650   */\n      dup2\n        /* \"#utility.yul\":8634:8650   */\n      swap1\n      pop\n        /* \"#utility.yul\":8579:8656   */\n      swap2\n      swap1\n      pop\n      jump\t// out\n        /* \"#utility.yul\":8662:8741   */\n    tag_116:\n        /* \"#utility.yul\":8701:8708   */\n      0x00\n        /* \"#utility.yul\":8730:8735   */\n      dup2\n        /* \"#utility.yul\":8719:8735   */\n      swap1\n      pop\n        /* \"#utility.yul\":8662:8741   */\n      swap2\n      swap1\n      pop\n      jump\t// out\n        /* \"#utility.yul\":8747:8904   */\n    tag_117:\n        /* \"#utility.yul\":8852:8897   */\n      tag_218\n        /* \"#utility.yul\":8872:8896   */\n      tag_219\n        /* \"#utility.yul\":8890:8895   */\n      dup3\n        /* \"#utility.yul\":8872:8896   */\n      tag_115\n      jump\t// in\n    tag_219:\n        /* \"#utility.yul\":8852:8897   */\n      tag_116\n      jump\t// in\n    tag_218:\n        /* \"#utility.yul\":8847:8850   */\n      dup3\n        /* \"#utility.yul\":8840:8898   */\n      mstore\n        /* \"#utility.yul\":8747:8904   */\n      pop\n      pop\n      jump\t// out\n        /* \"#utility.yul\":8910:9432   */\n    tag_69:\n        /* \"#utility.yul\":9123:9126   */\n      0x00\n        /* \"#utility.yul\":9145:9293   */\n      tag_221\n        /* \"#utility.yul\":9289:9292   */\n      dup3\n        /* \"#utility.yul\":9145:9293   */\n      tag_114\n      jump\t// in\n    tag_221:\n        /* \"#utility.yul\":9138:9293   */\n      swap2\n      pop\n        /* \"#utility.yul\":9303:9378   */\n      tag_222\n        /* \"#utility.yul\":9374:9377   */\n      dup3\n        /* \"#utility.yul\":9365:9371   */\n      dup5\n        /* \"#utility.yul\":9303:9378   */\n      tag_117\n      jump\t// in\n    tag_222:\n        /* \"#utility.yul\":9403:9405   */\n      0x20\n        /* \"#utility.yul\":9398:9401   */\n      dup3\n        /* \"#utility.yul\":9394:9406   */\n      add\n        /* \"#utility.yul\":9387:9406   */\n      swap2\n      pop\n        /* \"#utility.yul\":9423:9426   */\n      dup2\n        /* \"#utility.yul\":9416:9426   */\n      swap1\n      pop\n        /* \"#utility.yul\":8910:9432   */\n      swap3\n      swap2\n      pop\n      pop\n      jump\t// out\n        /* \"#utility.yul\":9438:9556   */\n    tag_118:\n        /* \"#utility.yul\":9525:9549   */\n      tag_224\n        /* \"#utility.yul\":9543:9548   */\n      dup2\n        /* \"#utility.yul\":9525:9549   */\n      tag_115\n      jump\t// in\n    tag_224:\n        /* \"#utility.yul\":9520:9523   */\n      dup3\n        /* \"#utility.yul\":9513:9550   */\n      mstore\n        /* \"#utility.yul\":9438:9556   */\n      pop\n      pop\n      jump\t// out\n        /* \"#utility.yul\":9562:9648   */\n    tag_119:\n        /* \"#utility.yul\":9597:9604   */\n      0x00\n        /* \"#utility.yul\":9637:9641   */\n      0xff\n        /* \"#utility.yul\":9630:9635   */\n      dup3\n        /* \"#utility.yul\":9626:9642   */\n      and\n        /* \"#utility.yul\":9615:9642   */\n      swap1\n      pop\n        /* \"#utility.yul\":9562:9648   */\n      swap2\n      swap1\n      pop\n      jump\t// out\n        /* \"#utility.yul\":9654:9766   */\n    tag_120:\n        /* \"#utility.yul\":9737:9759   */\n      tag_227\n        /* \"#utility.yul\":9753:9758   */\n      dup2\n        /* \"#utility.yul\":9737:9759   */\n      tag_119\n      jump\t// in\n    tag_227:\n        /* \"#utility.yul\":9732:9735   */\n      dup3\n        /* \"#utility.yul\":9725:9760   */\n      mstore\n        /* \"#utility.yul\":9654:9766   */\n      pop\n      pop\n      jump\t// out\n        /* \"#utility.yul\":9772:10317   */\n    tag_74:\n        /* \"#utility.yul\":9945:9949   */\n      0x00\n        /* \"#utility.yul\":9983:9986   */\n      0x80\n        /* \"#utility.yul\":9972:9981   */\n      dup3\n        /* \"#utility.yul\":9968:9987   */\n      add\n        /* \"#utility.yul\":9960:9987   */\n      swap1\n      pop\n        /* \"#utility.yul\":9997:10068   */\n      tag_229\n        /* \"#utility.yul\":10065:10066   */\n      0x00\n        /* \"#utility.yul\":10054:10063   */\n      dup4\n        /* \"#utility.yul\":10050:10067   */\n      add\n        /* \"#utility.yul\":10041:10047   */\n      dup8\n        /* \"#utility.yul\":9997:10068   */\n      tag_118\n      jump\t// in\n    tag_229:\n        /* \"#utility.yul\":10078:10146   */\n      tag_230\n        /* \"#utility.yul\":10142:10144   */\n      0x20\n        /* \"#utility.yul\":10131:10140   */\n      dup4\n        /* \"#utility.yul\":10127:10145   */\n      add\n        /* \"#utility.yul\":10118:10124   */\n      dup7\n        /* \"#utility.yul\":10078:10146   */\n      tag_120\n      jump\t// in\n    tag_230:\n        /* \"#utility.yul\":10156:10228   */\n      tag_231\n        /* \"#utility.yul\":10224:10226   */\n      0x40\n        /* \"#utility.yul\":10213:10222   */\n      dup4\n        /* \"#utility.yul\":10209:10227   */\n      add\n        /* \"#utility.yul\":10200:10206   */\n      dup6\n        /* \"#utility.yul\":10156:10228   */\n      tag_118\n      jump\t// in\n    tag_231:\n        /* \"#utility.yul\":10238:10310   */\n      tag_232\n        /* \"#utility.yul\":10306:10308   */\n      0x60\n        /* \"#utility.yul\":10295:10304   */\n      dup4\n        /* \"#utility.yul\":10291:10309   */\n      add\n        /* \"#utility.yul\":10282:10288   */\n      dup5\n        /* \"#utility.yul\":10238:10310   */\n      tag_118\n      jump\t// in\n    tag_232:\n        /* \"#utility.yul\":9772:10317   */\n      swap6\n      swap5\n      pop\n      pop\n      pop\n      pop\n      pop\n      jump\t// out\n\n    auxdata: 0xa26469706673582212201af4e62f3f0f8e843de36762e835c5e4e1200bb9141a0f0adb69bfa9889ec26a64736f6c63430008190033\n}\n",
				"bytecode": {
					"linkReferences": {},
					"object": "60806040525f805f6101000a81548160ff021916908315150217905550604051610d0c380380610d0c833981810160405281019061003d9190610167565b335f60016101000a81548173ffffffffffffffffffffffffffffffffffffffff021916908373ffffffffffffffffffffffffffffffffffffffff1602179055508160015f6101000a81548173ffffffffffffffffffffffffffffffffffffffff021916908373ffffffffffffffffffffffffffffffffffffffff16021790555080426100c991906101d2565b6002819055505050610205565b5f80fd5b5f73ffffffffffffffffffffffffffffffffffffffff82169050919050565b5f610103826100da565b9050919050565b610113816100f9565b811461011d575f80fd5b50565b5f8151905061012e8161010a565b92915050565b5f819050919050565b61014681610134565b8114610150575f80fd5b50565b5f815190506101618161013d565b92915050565b5f806040838503121561017d5761017c6100d6565b5b5f61018a85828601610120565b925050602061019b85828601610153565b9150509250929050565b7f4e487b71000000000000000000000000000000000000000000000000000000005f52601160045260245ffd5b5f6101dc82610134565b91506101e783610134565b92508282019050808211156101ff576101fe6101a5565b5b92915050565b610afa806102125f395ff3fe608060405234801561000f575f80fd5b5060043610610060575f3560e01c80630e1da6c314610064578063415ffba71461006e5780634665096d1461008a57806366d003ac146100a857806367e404ce146100c65780639714378c146100e4575b5f80fd5b61006c610100565b005b6100886004803603810190610083919061075c565b6101ca565b005b610092610357565b60405161009f91906107c5565b60405180910390f35b6100b061035d565b6040516100bd919061081d565b60405180910390f35b6100ce610382565b6040516100db919061081d565b60405180910390f35b6100fe60048036038101906100f99190610836565b6103a7565b005b5f8054906101000a900460ff161561014d576040517f08c379a0000000000000000000000000000000000000000000000000000000008152600401610144906108bb565b60405180910390fd5b60025442101561015b575f80fd5b610163610463565b5f60019054906101000a900473ffffffffffffffffffffffffffffffffffffffff1673ffffffffffffffffffffffffffffffffffffffff166108fc4790811502906040515f60405180830381858888f193505050501580156101c7573d5f803e3d5ffd5b50565b5f8054906101000a900460ff1615610217576040517f08c379a000000000000000000000000000000000000000000000000000000000815260040161020e906108bb565b60405180910390fd5b60015f9054906101000a900473ffffffffffffffffffffffffffffffffffffffff1673ffffffffffffffffffffffffffffffffffffffff163373ffffffffffffffffffffffffffffffffffffffff161461026f575f80fd5b610279828261047e565b610281575f80fd5b60015f9054906101000a900473ffffffffffffffffffffffffffffffffffffffff1673ffffffffffffffffffffffffffffffffffffffff166108fc8390811502906040515f60405180830381858888f193505050501580156102e5573d5f803e3d5ffd5b506102ee610463565b5f60019054906101000a900473ffffffffffffffffffffffffffffffffffffffff1673ffffffffffffffffffffffffffffffffffffffff166108fc4790811502906040515f60405180830381858888f19350505050158015610352573d5f803e3d5ffd5b505050565b60025481565b60015f9054906101000a900473ffffffffffffffffffffffffffffffffffffffff1681565b5f60019054906101000a900473ffffffffffffffffffffffffffffffffffffffff1681565b5f8054906101000a900460ff16156103f4576040517f08c379a00000000000000000000000000000000000000000000000000000000081526004016103eb906108bb565b60405180910390fd5b5f60019054906101000a900473ffffffffffffffffffffffffffffffffffffffff1673ffffffffffffffffffffffffffffffffffffffff163373ffffffffffffffffffffffffffffffffffffffff161461044c575f80fd5b6002548111610459575f80fd5b8060028190555050565b60015f806101000a81548160ff021916908315150217905550565b5f806104b1308560405160200161049692919061098a565b60405160208183030381529060405280519060200120610515565b90505f60019054906101000a900473ffffffffffffffffffffffffffffffffffffffff1673ffffffffffffffffffffffffffffffffffffffff166104f58285610544565b73ffffffffffffffffffffffffffffffffffffffff161491505092915050565b5f816040516020016105279190610a32565b604051602081830303815290604052805190602001209050919050565b5f805f80610551856105ae565b9250925092506001868484846040515f81526020016040526040516105799493929190610a81565b6020604051602081039080840390855afa158015610599573d5f803e3d5ffd5b50505060206040510351935050505092915050565b5f805f60418451146105be575f80fd5b602084015191506040840151905060608401515f1a92509193909250565b5f604051905090565b5f80fd5b5f80fd5b5f819050919050565b6105ff816105ed565b8114610609575f80fd5b50565b5f8135905061061a816105f6565b92915050565b5f80fd5b5f80fd5b5f601f19601f8301169050919050565b7f4e487b71000000000000000000000000000000000000000000000000000000005f52604160045260245ffd5b61066e82610628565b810181811067ffffffffffffffff8211171561068d5761068c610638565b5b80604052505050565b5f61069f6105dc565b90506106ab8282610665565b919050565b5f67ffffffffffffffff8211156106ca576106c9610638565b5b6106d382610628565b9050602081019050919050565b828183375f83830152505050565b5f6107006106fb846106b0565b610696565b90508281526020810184848401111561071c5761071b610624565b5b6107278482856106e0565b509392505050565b5f82601f83011261074357610742610620565b5b81356107538482602086016106ee565b91505092915050565b5f8060408385031215610772576107716105e5565b5b5f61077f8582860161060c565b925050602083013567ffffffffffffffff8111156107a05761079f6105e9565b5b6107ac8582860161072f565b9150509250929050565b6107bf816105ed565b82525050565b5f6020820190506107d85f8301846107b6565b92915050565b5f73ffffffffffffffffffffffffffffffffffffffff82169050919050565b5f610807826107de565b9050919050565b610817816107fd565b82525050565b5f6020820190506108305f83018461080e565b92915050565b5f6020828403121561084b5761084a6105e5565b5b5f6108588482850161060c565b91505092915050565b5f82825260208201905092915050565b7f496e61637469766520436f6e74726163742e00000000000000000000000000005f82015250565b5f6108a5601283610861565b91506108b082610871565b602082019050919050565b5f6020820190508181035f8301526108d281610899565b9050919050565b5f819050919050565b5f6108fc6108f76108f2846107de565b6108d9565b6107de565b9050919050565b5f61090d826108e2565b9050919050565b5f61091e82610903565b9050919050565b5f8160601b9050919050565b5f61093b82610925565b9050919050565b5f61094c82610931565b9050919050565b61096461095f82610914565b610942565b82525050565b5f819050919050565b61098461097f826105ed565b61096a565b82525050565b5f6109958285610953565b6014820191506109a58284610973565b6020820191508190509392505050565b5f81905092915050565b7f19457468657265756d205369676e6564204d6573736167653a0a3332000000005f82015250565b5f6109f3601c836109b5565b91506109fe826109bf565b601c82019050919050565b5f819050919050565b5f819050919050565b610a2c610a2782610a09565b610a12565b82525050565b5f610a3c826109e7565b9150610a488284610a1b565b60208201915081905092915050565b610a6081610a09565b82525050565b5f60ff82169050919050565b610a7b81610a66565b82525050565b5f608082019050610a945f830187610a57565b610aa16020830186610a72565b610aae6040830185610a57565b610abb6060830184610a57565b9594505050505056fea26469706673582212201af4e62f3f0f8e843de36762e835c5e4e1200bb9141a0f0adb69bfa9889ec26a64736f6c63430008190033",
					"opcodes": "PUSH1 0x80 PUSH1 0x40 MSTORE PUSH0 DUP1 PUSH0 PUSH2 0x100 EXP DUP2 SLOAD DUP2 PUSH1 0xFF MUL NOT AND SWAP1 DUP4 ISZERO ISZERO MUL OR SWAP1 SSTORE POP PUSH1 0x40 MLOAD PUSH2 0xD0C CODESIZE SUB DUP1 PUSH2 0xD0C DUP4 CODECOPY DUP2 DUP2 ADD PUSH1 0x40 MSTORE DUP2 ADD SWAP1 PUSH2 0x3D SWAP2 SWAP1 PUSH2 0x167 JUMP JUMPDEST CALLER PUSH0 PUSH1 0x1 PUSH2 0x100 EXP DUP2 SLOAD DUP2 PUSH20 0xFFFFFFFFFFFFFFFFFFFFFFFFFFFFFFFFFFFFFFFF MUL NOT AND SWAP1 DUP4 PUSH20 0xFFFFFFFFFFFFFFFFFFFFFFFFFFFFFFFFFFFFFFFF AND MUL OR SWAP1 SSTORE POP DUP2 PUSH1 0x1 PUSH0 PUSH2 0x100 EXP DUP2 SLOAD DUP2 PUSH20 0xFFFFFFFFFFFFFFFFFFFFFFFFFFFFFFFFFFFFFFFF MUL NOT AND SWAP1 DUP4 PUSH20 0xFFFFFFFFFFFFFFFFFFFFFFFFFFFFFFFFFFFFFFFF AND MUL OR SWAP1 SSTORE POP DUP1 TIMESTAMP PUSH2 0xC9 SWAP2 SWAP1 PUSH2 0x1D2 JUMP JUMPDEST PUSH1 0x2 DUP2 SWAP1 SSTORE POP POP POP PUSH2 0x205 JUMP JUMPDEST PUSH0 DUP1 REVERT JUMPDEST PUSH0 PUSH20 0xFFFFFFFFFFFFFFFFFFFFFFFFFFFFFFFFFFFFFFFF DUP3 AND SWAP1 POP SWAP2 SWAP1 POP JUMP JUMPDEST PUSH0 PUSH2 0x103 DUP3 PUSH2 0xDA JUMP JUMPDEST SWAP1 POP SWAP2 SWAP1 POP JUMP JUMPDEST PUSH2 0x113 DUP2 PUSH2 0xF9 JUMP JUMPDEST DUP2 EQ PUSH2 0x11D JUMPI PUSH0 DUP1 REVERT JUMPDEST POP JUMP JUMPDEST PUSH0 DUP2 MLOAD SWAP1 POP PUSH2 0x12E DUP2 PUSH2 0x10A JUMP JUMPDEST SWAP3 SWAP2 POP POP JUMP JUMPDEST PUSH0 DUP2 SWAP1 POP SWAP2 SWAP1 POP JUMP JUMPDEST PUSH2 0x146 DUP2 PUSH2 0x134 JUMP JUMPDEST DUP2 EQ PUSH2 0x150 JUMPI PUSH0 DUP1 REVERT JUMPDEST POP JUMP JUMPDEST PUSH0 DUP2 MLOAD SWAP1 POP PUSH2 0x161 DUP2 PUSH2 0x13D JUMP JUMPDEST SWAP3 SWAP2 POP POP JUMP JUMPDEST PUSH0 DUP1 PUSH1 0x40 DUP4 DUP6 SUB SLT ISZERO PUSH2 0x17D JUMPI PUSH2 0x17C PUSH2 0xD6 JUMP JUMPDEST JUMPDEST PUSH0 PUSH2 0x18A DUP6 DUP3 DUP7 ADD PUSH2 0x120 JUMP JUMPDEST SWAP3 POP POP PUSH1 0x20 PUSH2 0x19B DUP6 DUP3 DUP7 ADD PUSH2 0x153 JUMP JUMPDEST SWAP2 POP POP SWAP3 POP SWAP3 SWAP1 POP JUMP JUMPDEST PUSH32 0x4E487B7100000000000000000000000000000000000000000000000000000000 PUSH0 MSTORE PUSH1 0x11 PUSH1 0x4 MSTORE PUSH1 0x24 PUSH0 REVERT JUMPDEST PUSH0 PUSH2 0x1DC DUP3 PUSH2 0x134 JUMP JUMPDEST SWAP2 POP PUSH2 0x1E7 DUP4 PUSH2 0x134 JUMP JUMPDEST SWAP3 POP DUP3 DUP3 ADD SWAP1 POP DUP1 DUP3 GT ISZERO PUSH2 0x1FF JUMPI PUSH2 0x1FE PUSH2 0x1A5 JUMP JUMPDEST JUMPDEST SWAP3 SWAP2 POP POP JUMP JUMPDEST PUSH2 0xAFA DUP1 PUSH2 0x212 PUSH0 CODECOPY PUSH0 RETURN INVALID PUSH1 0x80 PUSH1 0x40 MSTORE CALLVALUE DUP1 ISZERO PUSH2 0xF JUMPI PUSH0 DUP1 REVERT JUMPDEST POP PUSH1 0x4 CALLDATASIZE LT PUSH2 0x60 JUMPI PUSH0 CALLDATALOAD PUSH1 0xE0 SHR DUP1 PUSH4 0xE1DA6C3 EQ PUSH2 0x64 JUMPI DUP1 PUSH4 0x415FFBA7 EQ PUSH2 0x6E JUMPI DUP1 PUSH4 0x4665096D EQ PUSH2 0x8A JUMPI DUP1 PUSH4 0x66D003AC EQ PUSH2 0xA8 JUMPI DUP1 PUSH4 0x67E404CE EQ PUSH2 0xC6 JUMPI DUP1 PUSH4 0x9714378C EQ PUSH2 0xE4 JUMPI JUMPDEST PUSH0 DUP1 REVERT JUMPDEST PUSH2 0x6C PUSH2 0x100 JUMP JUMPDEST STOP JUMPDEST PUSH2 0x88 PUSH1 0x4 DUP1 CALLDATASIZE SUB DUP2 ADD SWAP1 PUSH2 0x83 SWAP2 SWAP1 PUSH2 0x75C JUMP JUMPDEST PUSH2 0x1CA JUMP JUMPDEST STOP JUMPDEST PUSH2 0x92 PUSH2 0x357 JUMP JUMPDEST PUSH1 0x40 MLOAD PUSH2 0x9F SWAP2 SWAP1 PUSH2 0x7C5 JUMP JUMPDEST PUSH1 0x40 MLOAD DUP1 SWAP2 SUB SWAP1 RETURN JUMPDEST PUSH2 0xB0 PUSH2 0x35D JUMP JUMPDEST PUSH1 0x40 MLOAD PUSH2 0xBD SWAP2 SWAP1 PUSH2 0x81D JUMP JUMPDEST PUSH1 0x40 MLOAD DUP1 SWAP2 SUB SWAP1 RETURN JUMPDEST PUSH2 0xCE PUSH2 0x382 JUMP JUMPDEST PUSH1 0x40 MLOAD PUSH2 0xDB SWAP2 SWAP1 PUSH2 0x81D JUMP JUMPDEST PUSH1 0x40 MLOAD DUP1 SWAP2 SUB SWAP1 RETURN JUMPDEST PUSH2 0xFE PUSH1 0x4 DUP1 CALLDATASIZE SUB DUP2 ADD SWAP1 PUSH2 0xF9 SWAP2 SWAP1 PUSH2 0x836 JUMP JUMPDEST PUSH2 0x3A7 JUMP JUMPDEST STOP JUMPDEST PUSH0 DUP1 SLOAD SWAP1 PUSH2 0x100 EXP SWAP1 DIV PUSH1 0xFF AND ISZERO PUSH2 0x14D JUMPI PUSH1 0x40 MLOAD PUSH32 0x8C379A000000000000000000000000000000000000000000000000000000000 DUP2 MSTORE PUSH1 0x4 ADD PUSH2 0x144 SWAP1 PUSH2 0x8BB JUMP JUMPDEST PUSH1 0x40 MLOAD DUP1 SWAP2 SUB SWAP1 REVERT JUMPDEST PUSH1 0x2 SLOAD TIMESTAMP LT ISZERO PUSH2 0x15B JUMPI PUSH0 DUP1 REVERT JUMPDEST PUSH2 0x163 PUSH2 0x463 JUMP JUMPDEST PUSH0 PUSH1 0x1 SWAP1 SLOAD SWAP1 PUSH2 0x100 EXP SWAP1 DIV PUSH20 0xFFFFFFFFFFFFFFFFFFFFFFFFFFFFFFFFFFFFFFFF AND PUSH20 0xFFFFFFFFFFFFFFFFFFFFFFFFFFFFFFFFFFFFFFFF AND PUSH2 0x8FC SELFBALANCE SWAP1 DUP2 ISZERO MUL SWAP1 PUSH1 0x40 MLOAD PUSH0 PUSH1 0x40 MLOAD DUP1 DUP4 SUB DUP2 DUP6 DUP9 DUP9 CALL SWAP4 POP POP POP POP ISZERO DUP1 ISZERO PUSH2 0x1C7 JUMPI RETURNDATASIZE PUSH0 DUP1 RETURNDATACOPY RETURNDATASIZE PUSH0 REVERT JUMPDEST POP JUMP JUMPDEST PUSH0 DUP1 SLOAD SWAP1 PUSH2 0x100 EXP SWAP1 DIV PUSH1 0xFF AND ISZERO PUSH2 0x217 JUMPI PUSH1 0x40 MLOAD PUSH32 0x8C379A000000000000000000000000000000000000000000000000000000000 DUP2 MSTORE PUSH1 0x4 ADD PUSH2 0x20E SWAP1 PUSH2 0x8BB JUMP JUMPDEST PUSH1 0x40 MLOAD DUP1 SWAP2 SUB SWAP1 REVERT JUMPDEST PUSH1 0x1 PUSH0 SWAP1 SLOAD SWAP1 PUSH2 0x100 EXP SWAP1 DIV PUSH20 0xFFFFFFFFFFFFFFFFFFFFFFFFFFFFFFFFFFFFFFFF AND PUSH20 0xFFFFFFFFFFFFFFFFFFFFFFFFFFFFFFFFFFFFFFFF AND CALLER PUSH20 0xFFFFFFFFFFFFFFFFFFFFFFFFFFFFFFFFFFFFFFFF AND EQ PUSH2 0x26F JUMPI PUSH0 DUP1 REVERT JUMPDEST PUSH2 0x279 DUP3 DUP3 PUSH2 0x47E JUMP JUMPDEST PUSH2 0x281 JUMPI PUSH0 DUP1 REVERT JUMPDEST PUSH1 0x1 PUSH0 SWAP1 SLOAD SWAP1 PUSH2 0x100 EXP SWAP1 DIV PUSH20 0xFFFFFFFFFFFFFFFFFFFFFFFFFFFFFFFFFFFFFFFF AND PUSH20 0xFFFFFFFFFFFFFFFFFFFFFFFFFFFFFFFFFFFFFFFF AND PUSH2 0x8FC DUP4 SWAP1 DUP2 ISZERO MUL SWAP1 PUSH1 0x40 MLOAD PUSH0 PUSH1 0x40 MLOAD DUP1 DUP4 SUB DUP2 DUP6 DUP9 DUP9 CALL SWAP4 POP POP POP POP ISZERO DUP1 ISZERO PUSH2 0x2E5 JUMPI RETURNDATASIZE PUSH0 DUP1 RETURNDATACOPY RETURNDATASIZE PUSH0 REVERT JUMPDEST POP PUSH2 0x2EE PUSH2 0x463 JUMP JUMPDEST PUSH0 PUSH1 0x1 SWAP1 SLOAD SWAP1 PUSH2 0x100 EXP SWAP1 DIV PUSH20 0xFFFFFFFFFFFFFFFFFFFFFFFFFFFFFFFFFFFFFFFF AND PUSH20 0xFFFFFFFFFFFFFFFFFFFFFFFFFFFFFFFFFFFFFFFF AND PUSH2 0x8FC SELFBALANCE SWAP1 DUP2 ISZERO MUL SWAP1 PUSH1 0x40 MLOAD PUSH0 PUSH1 0x40 MLOAD DUP1 DUP4 SUB DUP2 DUP6 DUP9 DUP9 CALL SWAP4 POP POP POP POP ISZERO DUP1 ISZERO PUSH2 0x352 JUMPI RETURNDATASIZE PUSH0 DUP1 RETURNDATACOPY RETURNDATASIZE PUSH0 REVERT JUMPDEST POP POP POP JUMP JUMPDEST PUSH1 0x2 SLOAD DUP2 JUMP JUMPDEST PUSH1 0x1 PUSH0 SWAP1 SLOAD SWAP1 PUSH2 0x100 EXP SWAP1 DIV PUSH20 0xFFFFFFFFFFFFFFFFFFFFFFFFFFFFFFFFFFFFFFFF AND DUP2 JUMP JUMPDEST PUSH0 PUSH1 0x1 SWAP1 SLOAD SWAP1 PUSH2 0x100 EXP SWAP1 DIV PUSH20 0xFFFFFFFFFFFFFFFFFFFFFFFFFFFFFFFFFFFFFFFF AND DUP2 JUMP JUMPDEST PUSH0 DUP1 SLOAD SWAP1 PUSH2 0x100 EXP SWAP1 DIV PUSH1 0xFF AND ISZERO PUSH2 0x3F4 JUMPI PUSH1 0x40 MLOAD PUSH32 0x8C379A000000000000000000000000000000000000000000000000000000000 DUP2 MSTORE PUSH1 0x4 ADD PUSH2 0x3EB SWAP1 PUSH2 0x8BB JUMP JUMPDEST PUSH1 0x40 MLOAD DUP1 SWAP2 SUB SWAP1 REVERT JUMPDEST PUSH0 PUSH1 0x1 SWAP1 SLOAD SWAP1 PUSH2 0x100 EXP SWAP1 DIV PUSH20 0xFFFFFFFFFFFFFFFFFFFFFFFFFFFFFFFFFFFFFFFF AND PUSH20 0xFFFFFFFFFFFFFFFFFFFFFFFFFFFFFFFFFFFFFFFF AND CALLER PUSH20 0xFFFFFFFFFFFFFFFFFFFFFFFFFFFFFFFFFFFFFFFF AND EQ PUSH2 0x44C JUMPI PUSH0 DUP1 REVERT JUMPDEST PUSH1 0x2 SLOAD DUP2 GT PUSH2 0x459 JUMPI PUSH0 DUP1 REVERT JUMPDEST DUP1 PUSH1 0x2 DUP2 SWAP1 SSTORE POP POP JUMP JUMPDEST PUSH1 0x1 PUSH0 DUP1 PUSH2 0x100 EXP DUP2 SLOAD DUP2 PUSH1 0xFF MUL NOT AND SWAP1 DUP4 ISZERO ISZERO MUL OR SWAP1 SSTORE POP JUMP JUMPDEST PUSH0 DUP1 PUSH2 0x4B1 ADDRESS DUP6 PUSH1 0x40 MLOAD PUSH1 0x20 ADD PUSH2 0x496 SWAP3 SWAP2 SWAP1 PUSH2 0x98A JUMP JUMPDEST PUSH1 0x40 MLOAD PUSH1 0x20 DUP2 DUP4 SUB SUB DUP2 MSTORE SWAP1 PUSH1 0x40 MSTORE DUP1 MLOAD SWAP1 PUSH1 0x20 ADD KECCAK256 PUSH2 0x515 JUMP JUMPDEST SWAP1 POP PUSH0 PUSH1 0x1 SWAP1 SLOAD SWAP1 PUSH2 0x100 EXP SWAP1 DIV PUSH20 0xFFFFFFFFFFFFFFFFFFFFFFFFFFFFFFFFFFFFFFFF AND PUSH20 0xFFFFFFFFFFFFFFFFFFFFFFFFFFFFFFFFFFFFFFFF AND PUSH2 0x4F5 DUP3 DUP6 PUSH2 0x544 JUMP JUMPDEST PUSH20 0xFFFFFFFFFFFFFFFFFFFFFFFFFFFFFFFFFFFFFFFF AND EQ SWAP2 POP POP SWAP3 SWAP2 POP POP JUMP JUMPDEST PUSH0 DUP2 PUSH1 0x40 MLOAD PUSH1 0x20 ADD PUSH2 0x527 SWAP2 SWAP1 PUSH2 0xA32 JUMP JUMPDEST PUSH1 0x40 MLOAD PUSH1 0x20 DUP2 DUP4 SUB SUB DUP2 MSTORE SWAP1 PUSH1 0x40 MSTORE DUP1 MLOAD SWAP1 PUSH1 0x20 ADD KECCAK256 SWAP1 POP SWAP2 SWAP1 POP JUMP JUMPDEST PUSH0 DUP1 PUSH0 DUP1 PUSH2 0x551 DUP6 PUSH2 0x5AE JUMP JUMPDEST SWAP3 POP SWAP3 POP SWAP3 POP PUSH1 0x1 DUP7 DUP5 DUP5 DUP5 PUSH1 0x40 MLOAD PUSH0 DUP2 MSTORE PUSH1 0x20 ADD PUSH1 0x40 MSTORE PUSH1 0x40 MLOAD PUSH2 0x579 SWAP5 SWAP4 SWAP3 SWAP2 SWAP1 PUSH2 0xA81 JUMP JUMPDEST PUSH1 0x20 PUSH1 0x40 MLOAD PUSH1 0x20 DUP2 SUB SWAP1 DUP1 DUP5 SUB SWAP1 DUP6 GAS STATICCALL ISZERO DUP1 ISZERO PUSH2 0x599 JUMPI RETURNDATASIZE PUSH0 DUP1 RETURNDATACOPY RETURNDATASIZE PUSH0 REVERT JUMPDEST POP POP POP PUSH1 0x20 PUSH1 0x40 MLOAD SUB MLOAD SWAP4 POP POP POP POP SWAP3 SWAP2 POP POP JUMP JUMPDEST PUSH0 DUP1 PUSH0 PUSH1 0x41 DUP5 MLOAD EQ PUSH2 0x5BE JUMPI PUSH0 DUP1 REVERT JUMPDEST PUSH1 0x20 DUP5 ADD MLOAD SWAP2 POP PUSH1 0x40 DUP5 ADD MLOAD SWAP1 POP PUSH1 0x60 DUP5 ADD MLOAD PUSH0 BYTE SWAP3 POP SWAP2 SWAP4 SWAP1 SWAP3 POP JUMP JUMPDEST PUSH0 PUSH1 0x40 MLOAD SWAP1 POP SWAP1 JUMP JUMPDEST PUSH0 DUP1 REVERT JUMPDEST PUSH0 DUP1 REVERT JUMPDEST PUSH0 DUP2 SWAP1 POP SWAP2 SWAP1 POP JUMP JUMPDEST PUSH2 0x5FF DUP2 PUSH2 0x5ED JUMP JUMPDEST DUP2 EQ PUSH2 0x609 JUMPI PUSH0 DUP1 REVERT JUMPDEST POP JUMP JUMPDEST PUSH0 DUP2 CALLDATALOAD SWAP1 POP PUSH2 0x61A DUP2 PUSH2 0x5F6 JUMP JUMPDEST SWAP3 SWAP2 POP POP JUMP JUMPDEST PUSH0 DUP1 REVERT JUMPDEST PUSH0 DUP1 REVERT JUMPDEST PUSH0 PUSH1 0x1F NOT PUSH1 0x1F DUP4 ADD AND SWAP1 POP SWAP2 SWAP1 POP JUMP JUMPDEST PUSH32 0x4E487B7100000000000000000000000000000000000000000000000000000000 PUSH0 MSTORE PUSH1 0x41 PUSH1 0x4 MSTORE PUSH1 0x24 PUSH0 REVERT JUMPDEST PUSH2 0x66E DUP3 PUSH2 0x628 JUMP JUMPDEST DUP2 ADD DUP2 DUP2 LT PUSH8 0xFFFFFFFFFFFFFFFF DUP3 GT OR ISZERO PUSH2 0x68D JUMPI PUSH2 0x68C PUSH2 0x638 JUMP JUMPDEST JUMPDEST DUP1 PUSH1 0x40 MSTORE POP POP POP JUMP JUMPDEST PUSH0 PUSH2 0x69F PUSH2 0x5DC JUMP JUMPDEST SWAP1 POP PUSH2 0x6AB DUP3 DUP3 PUSH2 0x665 JUMP JUMPDEST SWAP2 SWAP1 POP JUMP JUMPDEST PUSH0 PUSH8 0xFFFFFFFFFFFFFFFF DUP3 GT ISZERO PUSH2 0x6CA JUMPI PUSH2 0x6C9 PUSH2 0x638 JUMP JUMPDEST JUMPDEST PUSH2 0x6D3 DUP3 PUSH2 0x628 JUMP JUMPDEST SWAP1 POP PUSH1 0x20 DUP2 ADD SWAP1 POP SWAP2 SWAP1 POP JUMP JUMPDEST DUP3 DUP2 DUP4 CALLDATACOPY PUSH0 DUP4 DUP4 ADD MSTORE POP POP POP JUMP JUMPDEST PUSH0 PUSH2 0x700 PUSH2 0x6FB DUP5 PUSH2 0x6B0 JUMP JUMPDEST PUSH2 0x696 JUMP JUMPDEST SWAP1 POP DUP3 DUP2 MSTORE PUSH1 0x20 DUP2 ADD DUP5 DUP5 DUP5 ADD GT ISZERO PUSH2 0x71C JUMPI PUSH2 0x71B PUSH2 0x624 JUMP JUMPDEST JUMPDEST PUSH2 0x727 DUP5 DUP3 DUP6 PUSH2 0x6E0 JUMP JUMPDEST POP SWAP4 SWAP3 POP POP POP JUMP JUMPDEST PUSH0 DUP3 PUSH1 0x1F DUP4 ADD SLT PUSH2 0x743 JUMPI PUSH2 0x742 PUSH2 0x620 JUMP JUMPDEST JUMPDEST DUP2 CALLDATALOAD PUSH2 0x753 DUP5 DUP3 PUSH1 0x20 DUP7 ADD PUSH2 0x6EE JUMP JUMPDEST SWAP2 POP POP SWAP3 SWAP2 POP POP JUMP JUMPDEST PUSH0 DUP1 PUSH1 0x40 DUP4 DUP6 SUB SLT ISZERO PUSH2 0x772 JUMPI PUSH2 0x771 PUSH2 0x5E5 JUMP JUMPDEST JUMPDEST PUSH0 PUSH2 0x77F DUP6 DUP3 DUP7 ADD PUSH2 0x60C JUMP JUMPDEST SWAP3 POP POP PUSH1 0x20 DUP4 ADD CALLDATALOAD PUSH8 0xFFFFFFFFFFFFFFFF DUP2 GT ISZERO PUSH2 0x7A0 JUMPI PUSH2 0x79F PUSH2 0x5E9 JUMP JUMPDEST JUMPDEST PUSH2 0x7AC DUP6 DUP3 DUP7 ADD PUSH2 0x72F JUMP JUMPDEST SWAP2 POP POP SWAP3 POP SWAP3 SWAP1 POP JUMP JUMPDEST PUSH2 0x7BF DUP2 PUSH2 0x5ED JUMP JUMPDEST DUP3 MSTORE POP POP JUMP JUMPDEST PUSH0 PUSH1 0x20 DUP3 ADD SWAP1 POP PUSH2 0x7D8 PUSH0 DUP4 ADD DUP5 PUSH2 0x7B6 JUMP JUMPDEST SWAP3 SWAP2 POP POP JUMP JUMPDEST PUSH0 PUSH20 0xFFFFFFFFFFFFFFFFFFFFFFFFFFFFFFFFFFFFFFFF DUP3 AND SWAP1 POP SWAP2 SWAP1 POP JUMP JUMPDEST PUSH0 PUSH2 0x807 DUP3 PUSH2 0x7DE JUMP JUMPDEST SWAP1 POP SWAP2 SWAP1 POP JUMP JUMPDEST PUSH2 0x817 DUP2 PUSH2 0x7FD JUMP JUMPDEST DUP3 MSTORE POP POP JUMP JUMPDEST PUSH0 PUSH1 0x20 DUP3 ADD SWAP1 POP PUSH2 0x830 PUSH0 DUP4 ADD DUP5 PUSH2 0x80E JUMP JUMPDEST SWAP3 SWAP2 POP POP JUMP JUMPDEST PUSH0 PUSH1 0x20 DUP3 DUP5 SUB SLT ISZERO PUSH2 0x84B JUMPI PUSH2 0x84A PUSH2 0x5E5 JUMP JUMPDEST JUMPDEST PUSH0 PUSH2 0x858 DUP5 DUP3 DUP6 ADD PUSH2 0x60C JUMP JUMPDEST SWAP2 POP POP SWAP3 SWAP2 POP POP JUMP JUMPDEST PUSH0 DUP3 DUP3 MSTORE PUSH1 0x20 DUP3 ADD SWAP1 POP SWAP3 SWAP2 POP POP JUMP JUMPDEST PUSH32 0x496E61637469766520436F6E74726163742E0000000000000000000000000000 PUSH0 DUP3 ADD MSTORE POP JUMP JUMPDEST PUSH0 PUSH2 0x8A5 PUSH1 0x12 DUP4 PUSH2 0x861 JUMP JUMPDEST SWAP2 POP PUSH2 0x8B0 DUP3 PUSH2 0x871 JUMP JUMPDEST PUSH1 0x20 DUP3 ADD SWAP1 POP SWAP2 SWAP1 POP JUMP JUMPDEST PUSH0 PUSH1 0x20 DUP3 ADD SWAP1 POP DUP2 DUP2 SUB PUSH0 DUP4 ADD MSTORE PUSH2 0x8D2 DUP2 PUSH2 0x899 JUMP JUMPDEST SWAP1 POP SWAP2 SWAP1 POP JUMP JUMPDEST PUSH0 DUP2 SWAP1 POP SWAP2 SWAP1 POP JUMP JUMPDEST PUSH0 PUSH2 0x8FC PUSH2 0x8F7 PUSH2 0x8F2 DUP5 PUSH2 0x7DE JUMP JUMPDEST PUSH2 0x8D9 JUMP JUMPDEST PUSH2 0x7DE JUMP JUMPDEST SWAP1 POP SWAP2 SWAP1 POP JUMP JUMPDEST PUSH0 PUSH2 0x90D DUP3 PUSH2 0x8E2 JUMP JUMPDEST SWAP1 POP SWAP2 SWAP1 POP JUMP JUMPDEST PUSH0 PUSH2 0x91E DUP3 PUSH2 0x903 JUMP JUMPDEST SWAP1 POP SWAP2 SWAP1 POP JUMP JUMPDEST PUSH0 DUP2 PUSH1 0x60 SHL SWAP1 POP SWAP2 SWAP1 POP JUMP JUMPDEST PUSH0 PUSH2 0x93B DUP3 PUSH2 0x925 JUMP JUMPDEST SWAP1 POP SWAP2 SWAP1 POP JUMP JUMPDEST PUSH0 PUSH2 0x94C DUP3 PUSH2 0x931 JUMP JUMPDEST SWAP1 POP SWAP2 SWAP1 POP JUMP JUMPDEST PUSH2 0x964 PUSH2 0x95F DUP3 PUSH2 0x914 JUMP JUMPDEST PUSH2 0x942 JUMP JUMPDEST DUP3 MSTORE POP POP JUMP JUMPDEST PUSH0 DUP2 SWAP1 POP SWAP2 SWAP1 POP JUMP JUMPDEST PUSH2 0x984 PUSH2 0x97F DUP3 PUSH2 0x5ED JUMP JUMPDEST PUSH2 0x96A JUMP JUMPDEST DUP3 MSTORE POP POP JUMP JUMPDEST PUSH0 PUSH2 0x995 DUP3 DUP6 PUSH2 0x953 JUMP JUMPDEST PUSH1 0x14 DUP3 ADD SWAP2 POP PUSH2 0x9A5 DUP3 DUP5 PUSH2 0x973 JUMP JUMPDEST PUSH1 0x20 DUP3 ADD SWAP2 POP DUP2 SWAP1 POP SWAP4 SWAP3 POP POP POP JUMP JUMPDEST PUSH0 DUP2 SWAP1 POP SWAP3 SWAP2 POP POP JUMP JUMPDEST PUSH32 0x19457468657265756D205369676E6564204D6573736167653A0A333200000000 PUSH0 DUP3 ADD MSTORE POP JUMP JUMPDEST PUSH0 PUSH2 0x9F3 PUSH1 0x1C DUP4 PUSH2 0x9B5 JUMP JUMPDEST SWAP2 POP PUSH2 0x9FE DUP3 PUSH2 0x9BF JUMP JUMPDEST PUSH1 0x1C DUP3 ADD SWAP1 POP SWAP2 SWAP1 POP JUMP JUMPDEST PUSH0 DUP2 SWAP1 POP SWAP2 SWAP1 POP JUMP JUMPDEST PUSH0 DUP2 SWAP1 POP SWAP2 SWAP1 POP JUMP JUMPDEST PUSH2 0xA2C PUSH2 0xA27 DUP3 PUSH2 0xA09 JUMP JUMPDEST PUSH2 0xA12 JUMP JUMPDEST DUP3 MSTORE POP POP JUMP JUMPDEST PUSH0 PUSH2 0xA3C DUP3 PUSH2 0x9E7 JUMP JUMPDEST SWAP2 POP PUSH2 0xA48 DUP3 DUP5 PUSH2 0xA1B JUMP JUMPDEST PUSH1 0x20 DUP3 ADD SWAP2 POP DUP2 SWAP1 POP SWAP3 SWAP2 POP POP JUMP JUMPDEST PUSH2 0xA60 DUP2 PUSH2 0xA09 JUMP JUMPDEST DUP3 MSTORE POP POP JUMP JUMPDEST PUSH0 PUSH1 0xFF DUP3 AND SWAP1 POP SWAP2 SWAP1 POP JUMP JUMPDEST PUSH2 0xA7B DUP2 PUSH2 0xA66 JUMP JUMPDEST DUP3 MSTORE POP POP JUMP JUMPDEST PUSH0 PUSH1 0x80 DUP3 ADD SWAP1 POP PUSH2 0xA94 PUSH0 DUP4 ADD DUP8 PUSH2 0xA57 JUMP JUMPDEST PUSH2 0xAA1 PUSH1 0x20 DUP4 ADD DUP7 PUSH2 0xA72 JUMP JUMPDEST PUSH2 0xAAE PUSH1 0x40 DUP4 ADD DUP6 PUSH2 0xA57 JUMP JUMPDEST PUSH2 0xABB PUSH1 0x60 DUP4 ADD DUP5 PUSH2 0xA57 JUMP JUMPDEST SWAP6 SWAP5 POP POP POP POP POP JUMP INVALID LOG2 PUSH5 0x6970667358 0x22 SLT KECCAK256 BYTE DELEGATECALL 0xE6 0x2F EXTCODEHASH 0xF DUP15 DUP5 RETURNDATASIZE 0xE3 PUSH8 0x62E835C5E4E1200B 0xB9 EQ BYTE 0xF EXP 0xDB PUSH10 0xBFA9889EC26A64736F6C PUSH4 0x43000819 STOP CALLER "
				},
				"gasEstimates": {
					"creation": {
						"codeDepositCost": "562000",
						"executionCost": "infinite",
						"totalCost": "infinite"
					},
					"external": {
						"claimTimeout()": "infinite",
						"close(uint256,bytes)": "infinite",
						"expiration()": "2447",
						"extend(uint256)": "29097",
						"recipient()": "2552",
						"sender()": "2624"
					},
					"internal": {
						"isValidSignature(uint256,bytes memory)": "infinite",
						"prefixed(bytes32)": "infinite",
						"recoverSigner(bytes32,bytes memory)": "infinite",
						"splitSignature(bytes memory)": "infinite"
					}
				},
				"methodIdentifiers": {
					"claimTimeout()": "0e1da6c3",
					"close(uint256,bytes)": "415ffba7",
					"expiration()": "4665096d",
					"extend(uint256)": "9714378c",
					"recipient()": "66d003ac",
					"sender()": "67e404ce"
				}
			},
			"storageLayout": {
				"storage": [
					{
						"astId": 4,
						"contract": "contracts/payment.sol:SimplePaymentChannel",
						"label": "_frozen",
						"offset": 0,
						"slot": "0",
						"type": "t_bool"
					},
					{
						"astId": 27,
						"contract": "contracts/payment.sol:SimplePaymentChannel",
						"label": "sender",
						"offset": 1,
						"slot": "0",
						"type": "t_address_payable"
					},
					{
						"astId": 29,
						"contract": "contracts/payment.sol:SimplePaymentChannel",
						"label": "recipient",
						"offset": 0,
						"slot": "1",
						"type": "t_address_payable"
					},
					{
						"astId": 31,
						"contract": "contracts/payment.sol:SimplePaymentChannel",
						"label": "expiration",
						"offset": 0,
						"slot": "2",
						"type": "t_uint256"
					}
				],
				"types": {
					"t_address_payable": {
						"encoding": "inplace",
						"label": "address payable",
						"numberOfBytes": "20"
					},
					"t_bool": {
						"encoding": "inplace",
						"label": "bool",
						"numberOfBytes": "1"
					},
					"t_uint256": {
						"encoding": "inplace",
						"label": "uint256",
						"numberOfBytes": "32"
					}
				}
			},
			"userdoc": {
				"kind": "user",
				"methods": {
					"claimTimeout()": {
						"notice": "if the timeout is reached without the recipient closing the channel, then the Ether is released back to the sender."
					},
					"close(uint256,bytes)": {
						"notice": "the recipient can close the channel at any time by presenting a signed amount from the sender. the recipient will be sent that amount, and the remainder will go back to the sender"
					},
					"extend(uint256)": {
						"notice": "the sender can extend the expiration at any time"
					}
				},
				"version": 1
			}
		}
	}
}